{"contracts/RNFTDollarDeposit.sol":{"RNFTDollarDeposit":{"abi":[{"inputs":[{"internalType":"address","name":"_rnftd","type":"address"}],"stateMutability":"nonpayable","type":"constructor"},{"inputs":[{"internalType":"address","name":"stablecoin","type":"address"}],"name":"RNFTDollarDeposit_AlreadyStablecoinAdded","type":"error"},{"inputs":[],"name":"RNFTDollarDeposit_InvalidDepositAmount","type":"error"},{"inputs":[],"name":"RNFTDollarDeposit_NoRETHWasMinted","type":"error"},{"inputs":[],"name":"RNFTDollarDeposit_NotAdminRole","type":"error"},{"inputs":[{"internalType":"address","name":"stablecoin","type":"address"}],"name":"RNFTDollarDeposit_NotAvailableStablecoin","type":"error"},{"inputs":[],"name":"RNFTDollarDeposit_ZeroAddress","type":"error"},{"anonymous":false,"inputs":[{"indexed":false,"internalType":"address","name":"stablecoinAddress","type":"address"}],"name":"NewStablecoinAddressAdded","type":"event"},{"anonymous":false,"inputs":[{"indexed":false,"internalType":"address","name":"oldREthAddress","type":"address"},{"indexed":false,"internalType":"address","name":"newREthAddress","type":"address"}],"name":"REthAddressChanged","type":"event"},{"anonymous":false,"inputs":[{"indexed":false,"internalType":"address","name":"oldRocketPoolDepositAddress","type":"address"},{"indexed":false,"internalType":"address","name":"newRocketPoolDepositAddress","type":"address"}],"name":"RocketPoolDepositAddressChanged","type":"event"},{"anonymous":false,"inputs":[{"indexed":true,"internalType":"bytes32","name":"role","type":"bytes32"},{"indexed":true,"internalType":"bytes32","name":"previousAdminRole","type":"bytes32"},{"indexed":true,"internalType":"bytes32","name":"newAdminRole","type":"bytes32"}],"name":"RoleAdminChanged","type":"event"},{"anonymous":false,"inputs":[{"indexed":true,"internalType":"bytes32","name":"role","type":"bytes32"},{"indexed":true,"internalType":"address","name":"account","type":"address"},{"indexed":true,"internalType":"address","name":"sender","type":"address"}],"name":"RoleGranted","type":"event"},{"anonymous":false,"inputs":[{"indexed":true,"internalType":"bytes32","name":"role","type":"bytes32"},{"indexed":true,"internalType":"address","name":"account","type":"address"},{"indexed":true,"internalType":"address","name":"sender","type":"address"}],"name":"RoleRevoked","type":"event"},{"anonymous":false,"inputs":[{"indexed":false,"internalType":"address","name":"stablecoinAddress","type":"address"}],"name":"StablecoinAddressRemoved","type":"event"},{"anonymous":false,"inputs":[{"indexed":true,"internalType":"address","name":"sender","type":"address"},{"indexed":true,"internalType":"uint256","name":"amountOut","type":"uint256"}],"name":"StakedWEthAndReceivedRNFDollar","type":"event"},{"anonymous":false,"inputs":[{"indexed":false,"internalType":"address","name":"oldWEthAddress","type":"address"},{"indexed":false,"internalType":"address","name":"newWEthAddress","type":"address"}],"name":"WEthAddressChanged","type":"event"},{"stateMutability":"payable","type":"fallback"},{"inputs":[],"name":"DEFAULT_ADMIN_ROLE","outputs":[{"internalType":"bytes32","name":"","type":"bytes32"}],"stateMutability":"view","type":"function"},{"inputs":[],"name":"POOL_FEE","outputs":[{"internalType":"uint24","name":"","type":"uint24"}],"stateMutability":"view","type":"function"},{"inputs":[{"internalType":"address","name":"stablecoinAddress","type":"address"}],"name":"addNewStablecoinAddress","outputs":[],"stateMutability":"nonpayable","type":"function"},{"inputs":[{"internalType":"address","name":"","type":"address"}],"name":"availableStablecoins","outputs":[{"internalType":"bool","name":"","type":"bool"}],"stateMutability":"view","type":"function"},{"inputs":[{"internalType":"address","name":"","type":"address"}],"name":"balances","outputs":[{"internalType":"uint256","name":"","type":"uint256"}],"stateMutability":"view","type":"function"},{"inputs":[{"internalType":"address","name":"tokenIn","type":"address"},{"internalType":"uint256","name":"amountIn","type":"uint256"},{"internalType":"uint256","name":"decimalsOfInput","type":"uint256"}],"name":"depositRPAndMintRNFTD","outputs":[{"internalType":"uint256","name":"amountOut","type":"uint256"}],"stateMutability":"nonpayable","type":"function"},{"inputs":[{"internalType":"bytes32","name":"role","type":"bytes32"}],"name":"getRoleAdmin","outputs":[{"internalType":"bytes32","name":"","type":"bytes32"}],"stateMutability":"view","type":"function"},{"inputs":[{"internalType":"bytes32","name":"role","type":"bytes32"},{"internalType":"address","name":"account","type":"address"}],"name":"grantRole","outputs":[],"stateMutability":"nonpayable","type":"function"},{"inputs":[{"internalType":"bytes32","name":"role","type":"bytes32"},{"internalType":"address","name":"account","type":"address"}],"name":"hasRole","outputs":[{"internalType":"bool","name":"","type":"bool"}],"stateMutability":"view","type":"function"},{"inputs":[],"name":"rEth","outputs":[{"internalType":"address","name":"","type":"address"}],"stateMutability":"view","type":"function"},{"inputs":[{"internalType":"address","name":"stablecoinAddress","type":"address"}],"name":"removeStablecoinAddress","outputs":[],"stateMutability":"nonpayable","type":"function"},{"inputs":[{"internalType":"bytes32","name":"role","type":"bytes32"},{"internalType":"address","name":"account","type":"address"}],"name":"renounceRole","outputs":[],"stateMutability":"nonpayable","type":"function"},{"inputs":[{"internalType":"bytes32","name":"role","type":"bytes32"},{"internalType":"address","name":"account","type":"address"}],"name":"revokeRole","outputs":[],"stateMutability":"nonpayable","type":"function"},{"inputs":[],"name":"rnftd","outputs":[{"internalType":"address","name":"","type":"address"}],"stateMutability":"view","type":"function"},{"inputs":[],"name":"rocketPoolDeposit","outputs":[{"internalType":"address","name":"","type":"address"}],"stateMutability":"view","type":"function"},{"inputs":[{"internalType":"address","name":"newREthAddress","type":"address"}],"name":"setNewREthAddress","outputs":[],"stateMutability":"nonpayable","type":"function"},{"inputs":[{"internalType":"address","name":"newRocketPoolDepositAddress","type":"address"}],"name":"setNewRocketPoolDepositAddress","outputs":[],"stateMutability":"nonpayable","type":"function"},{"inputs":[{"internalType":"address","name":"newWEthAddress","type":"address"}],"name":"setNewWEthAddress","outputs":[],"stateMutability":"nonpayable","type":"function"},{"inputs":[{"internalType":"bytes4","name":"interfaceId","type":"bytes4"}],"name":"supportsInterface","outputs":[{"internalType":"bool","name":"","type":"bool"}],"stateMutability":"view","type":"function"},{"inputs":[],"name":"swapRouter","outputs":[{"internalType":"contract ISwapRouter","name":"","type":"address"}],"stateMutability":"view","type":"function"},{"inputs":[],"name":"wEth","outputs":[{"internalType":"address","name":"","type":"address"}],"stateMutability":"view","type":"function"},{"stateMutability":"payable","type":"receive"}],"evm":{"bytecode":{"linkReferences":{},"object":"60c06040523480156200001157600080fd5b50604051620018633803806200186383398101604081905262000034916200024c565b806001600160a01b0381166200005d576040516363716c4d60e01b815260040160405180910390fd5b6200006a6000336200019c565b50600180546001600160a01b031990811673b4fbf271143f4fbf7b91a5ded31805e42b2208d617825560028054821673178e141a0e3b34152f73ff610437a7bf9b83267a17905560038054909116732cac916b2a963bf162f076c0a8a4a8200bcfbfb41790556001600160a01b039190911660805273e592427a0aece92de3edee1f18e0157c0586156460a05260056020527fcefc2199e904350fd546b30571468de63d921031009f9a7b9ab1205231ce6ad3805460ff1990811683179091557f1d6bc42546486c8f71b9cf7d9956e915d38c748f56c376f0ea2a4a9a8168595380548216831790557307865c6e87b9f70255377e024ace6630c1eaa37f6000527f4057a4bd44e97a5e91ff5d9f4141740365666fa04241efa5e57bc68ce007c21a805490911690911790556200027e565b620001a88282620001ac565b5050565b6000828152602081815260408083206001600160a01b038516845290915290205460ff16620001a8576000828152602081815260408083206001600160a01b03851684529091529020805460ff19166001179055620002083390565b6001600160a01b0316816001600160a01b0316837f2f8788117e7eff1d82e926ec794901d17c78024a50270940304540a733656f0d60405160405180910390a45050565b6000602082840312156200025f57600080fd5b81516001600160a01b03811681146200027757600080fd5b9392505050565b60805160a0516115aa620002b96000396000818161038e01528181610d860152610e52015260008181610235015261077f01526115aa6000f3fe6080604052600436106101225760003560e01c80637c8b45ae116100a5578063c31c9c071161006c578063c31c9c071461037c578063d547741f146103b0578063dd1b9c4a146103d0578063df6d9212146103fa578063f55957461461041a578063fa19dc071461043a57005b80637c8b45ae146102d757806386f870a2146102f757806387479a9b1461031757806391d1485414610347578063a217fddf1461036757005b8063346519a0116100e9578063346519a01461022357806336568abe1461025757806338e822711461027757806364b72507146102975780637b895d38146102b757005b806301ffc9a71461012b5780631690696014610160578063248a9ca31461019857806327e235e3146101d65780632f2ff15d1461020357005b3661012957005b005b34801561013757600080fd5b5061014b6101463660046112e2565b61045a565b60405190151581526020015b60405180910390f35b34801561016c57600080fd5b50600354610180906001600160a01b031681565b6040516001600160a01b039091168152602001610157565b3480156101a457600080fd5b506101c86101b336600461130c565b60009081526020819052604090206001015490565b604051908152602001610157565b3480156101e257600080fd5b506101c86101f1366004611341565b60046020526000908152604090205481565b34801561020f57600080fd5b5061012961021e36600461135c565b610491565b34801561022f57600080fd5b506101807f000000000000000000000000000000000000000000000000000000000000000081565b34801561026357600080fd5b5061012961027236600461135c565b6104bb565b34801561028357600080fd5b50610129610292366004611341565b61053e565b3480156102a357600080fd5b506101296102b2366004611341565b6105f8565b3480156102c357600080fd5b506101c86102d2366004611388565b6106e9565b3480156102e357600080fd5b506101296102f2366004611341565b610a19565b34801561030357600080fd5b50610129610312366004611341565b610ad3565b34801561032357600080fd5b5061014b610332366004611341565b60056020526000908152604090205460ff1681565b34801561035357600080fd5b5061014b61036236600461135c565b610b8d565b34801561037357600080fd5b506101c8600081565b34801561038857600080fd5b506101807f000000000000000000000000000000000000000000000000000000000000000081565b3480156103bc57600080fd5b506101296103cb36600461135c565b610bb6565b3480156103dc57600080fd5b506103e6610bb881565b60405162ffffff9091168152602001610157565b34801561040657600080fd5b50600154610180906001600160a01b031681565b34801561042657600080fd5b50600254610180906001600160a01b031681565b34801561044657600080fd5b50610129610455366004611341565b610bdb565b60006001600160e01b03198216637965db0b60e01b148061048b57506301ffc9a760e01b6001600160e01b03198316145b92915050565b6000828152602081905260409020600101546104ac81610c7c565b6104b68383610c89565b505050565b6001600160a01b03811633146105305760405162461bcd60e51b815260206004820152602f60248201527f416363657373436f6e74726f6c3a2063616e206f6e6c792072656e6f756e636560448201526e103937b632b9903337b91039b2b63360891b60648201526084015b60405180910390fd5b61053a8282610d0d565b5050565b806001600160a01b038116610566576040516363716c4d60e01b815260040160405180910390fd5b610571600033610b8d565b61058e57604051638f73a15360e01b815260040160405180910390fd5b600354604080516001600160a01b03928316815291841660208301527fc4722aedb7e14c03fe351d925a847f242527a1079c1390e9c8c355be18493fd8910160405180910390a150600380546001600160a01b0319166001600160a01b0392909216919091179055565b806001600160a01b038116610620576040516363716c4d60e01b815260040160405180910390fd5b61062b600033610b8d565b61064857604051638f73a15360e01b815260040160405180910390fd5b6001600160a01b03821660009081526005602052604090205460ff161561068d5760405163ebb84f6960e01b81526001600160a01b0383166004820152602401610527565b6001600160a01b038216600081815260056020908152604091829020805460ff1916600117905590519182527fd3fd5514d8d38737937e026d07c3e8fd002f28a6df2f95c0dc46a71c1d69f29091015b60405180910390a15050565b600080831161070b57604051635c90049d60e01b815260040160405180910390fd5b6001600160a01b03841660009081526005602052604090205460ff1661074f576040516302ef202360e61b81526001600160a01b0385166004820152602401610527565b6107598385610d72565b604051630ab714fb60e11b815233600482015260248101859052604481018490529091507f00000000000000000000000000000000000000000000000000000000000000006001600160a01b03169063156e29f690606401600060405180830381600087803b1580156107cb57600080fd5b505af11580156107df573d6000803e3d6000fd5b5050600154604051632e1a7d4d60e01b8152600481018590526001600160a01b039091169250632e1a7d4d9150602401600060405180830381600087803b15801561082957600080fd5b505af115801561083d573d6000803e3d6000fd5b50506002546040516370a0823160e01b8152306004820152600093506001600160a01b0390911691506370a0823190602401602060405180830381865afa15801561088c573d6000803e3d6000fd5b505050506040513d601f19601f820116820180604052508101906108b091906113bb565b9050600360009054906101000a90046001600160a01b03166001600160a01b031663d0e30db0836040518263ffffffff1660e01b81526004016000604051808303818588803b15801561090257600080fd5b505af1158015610916573d6000803e3d6000fd5b50506002546040516370a0823160e01b8152306004820152600094506001600160a01b0390911692506370a082319150602401602060405180830381865afa158015610966573d6000803e3d6000fd5b505050506040513d601f19601f8201168201806040525081019061098a91906113bb565b9050818110156109ad57604051631452ebb760e11b815260040160405180910390fd5b60006109b983836113ea565b336000908152600460205260408120805492935083929091906109dd9084906113fd565b9091555050604051849033907fd90f1fca51e813c7f414a95c5f61dedbc802d6f960b16e20362862deaa502e2490600090a35050509392505050565b806001600160a01b038116610a41576040516363716c4d60e01b815260040160405180910390fd5b610a4c600033610b8d565b610a6957604051638f73a15360e01b815260040160405180910390fd5b600254604080516001600160a01b03928316815291841660208301527fc9f31771c671187e4ab48197590b7d13f81a8519b35c03fced410c7b504435da910160405180910390a150600280546001600160a01b0319166001600160a01b0392909216919091179055565b806001600160a01b038116610afb576040516363716c4d60e01b815260040160405180910390fd5b610b06600033610b8d565b610b2357604051638f73a15360e01b815260040160405180910390fd5b600154604080516001600160a01b03928316815291841660208301527f1eec9a3a647adc7a929db43a3a812f44dfdc1ac62e59441fcaffceb5b8a36743910160405180910390a150600180546001600160a01b0319166001600160a01b0392909216919091179055565b6000918252602082815260408084206001600160a01b0393909316845291905290205460ff1690565b600082815260208190526040902060010154610bd181610c7c565b6104b68383610d0d565b806001600160a01b038116610c03576040516363716c4d60e01b815260040160405180910390fd5b610c0e600033610b8d565b610c2b57604051638f73a15360e01b815260040160405180910390fd5b6001600160a01b038216600081815260056020908152604091829020805460ff1916905590519182527f88e26bc6bef7637bfd9b65be229bfdec9813454ad0bee72203006a540dadfd5491016106dd565b610c868133610eca565b50565b610c938282610b8d565b61053a576000828152602081815260408083206001600160a01b03851684529091529020805460ff19166001179055610cc93390565b6001600160a01b0316816001600160a01b0316837f2f8788117e7eff1d82e926ec794901d17c78024a50270940304540a733656f0d60405160405180910390a45050565b610d178282610b8d565b1561053a576000828152602081815260408083206001600160a01b0385168085529252808320805460ff1916905551339285917ff6391f5c32d9c69d2a47ea670b442974b53935d1edc7fd64eb21e047a839171b9190a45050565b6000610d8082333086610f23565b610dab827f00000000000000000000000000000000000000000000000000000000000000008561102d565b60408051610100810182526001600160a01b038481168252600154811660208301908152610bb88385019081523060608501908152426080860190815260a086018a8152600060c0880181815260e08901918252985163414bf38960e01b8152885188166004820152955187166024870152935162ffffff1660448601529151851660648501525160848401525160a4830152935160c48201529251811660e484015290917f00000000000000000000000000000000000000000000000000000000000000009091169063414bf38990610104016020604051808303816000875af1158015610e9e573d6000803e3d6000fd5b505050506040513d601f19601f82011682018060405250810190610ec291906113bb565b949350505050565b610ed48282610b8d565b61053a57610ee18161112d565b610eec83602061113f565b604051602001610efd929190611434565b60408051601f198184030181529082905262461bcd60e51b8252610527916004016114a9565b604080516001600160a01b0385811660248301528481166044830152606480830185905283518084039091018152608490920183526020820180516001600160e01b03166323b872dd60e01b1790529151600092839290881691610f8791906114dc565b6000604051808303816000865af19150503d8060008114610fc4576040519150601f19603f3d011682016040523d82523d6000602084013e610fc9565b606091505b5091509150818015610ff3575080511580610ff3575080806020019051810190610ff391906114f8565b6110255760405162461bcd60e51b815260206004820152600360248201526229aa2360e91b6044820152606401610527565b505050505050565b604080516001600160a01b038481166024830152604480830185905283518084039091018152606490920183526020820180516001600160e01b031663095ea7b360e01b179052915160009283929087169161108991906114dc565b6000604051808303816000865af19150503d80600081146110c6576040519150601f19603f3d011682016040523d82523d6000602084013e6110cb565b606091505b50915091508180156110f55750805115806110f55750808060200190518101906110f591906114f8565b6111265760405162461bcd60e51b8152602060048201526002602482015261534160f01b6044820152606401610527565b5050505050565b606061048b6001600160a01b03831660145b6060600061114e83600261151a565b6111599060026113fd565b67ffffffffffffffff81111561117157611171611531565b6040519080825280601f01601f19166020018201604052801561119b576020820181803683370190505b509050600360fc1b816000815181106111b6576111b6611547565b60200101906001600160f81b031916908160001a905350600f60fb1b816001815181106111e5576111e5611547565b60200101906001600160f81b031916908160001a905350600061120984600261151a565b6112149060016113fd565b90505b600181111561128c576f181899199a1a9b1b9c1cb0b131b232b360811b85600f166010811061124857611248611547565b1a60f81b82828151811061125e5761125e611547565b60200101906001600160f81b031916908160001a90535060049490941c936112858161155d565b9050611217565b5083156112db5760405162461bcd60e51b815260206004820181905260248201527f537472696e67733a20686578206c656e67746820696e73756666696369656e746044820152606401610527565b9392505050565b6000602082840312156112f457600080fd5b81356001600160e01b0319811681146112db57600080fd5b60006020828403121561131e57600080fd5b5035919050565b80356001600160a01b038116811461133c57600080fd5b919050565b60006020828403121561135357600080fd5b6112db82611325565b6000806040838503121561136f57600080fd5b8235915061137f60208401611325565b90509250929050565b60008060006060848603121561139d57600080fd5b6113a684611325565b95602085013595506040909401359392505050565b6000602082840312156113cd57600080fd5b5051919050565b634e487b7160e01b600052601160045260246000fd5b8181038181111561048b5761048b6113d4565b8082018082111561048b5761048b6113d4565b60005b8381101561142b578181015183820152602001611413565b50506000910152565b7f416363657373436f6e74726f6c3a206163636f756e742000000000000000000081526000835161146c816017850160208801611410565b7001034b99036b4b9b9b4b733903937b6329607d1b601791840191820152835161149d816028840160208801611410565b01602801949350505050565b60208152600082518060208401526114c8816040850160208701611410565b601f01601f19169190910160400192915050565b600082516114ee818460208701611410565b9190910192915050565b60006020828403121561150a57600080fd5b815180151581146112db57600080fd5b808202811582820484141761048b5761048b6113d4565b634e487b7160e01b600052604160045260246000fd5b634e487b7160e01b600052603260045260246000fd5b60008161156c5761156c6113d4565b50600019019056fea26469706673582212204e579a12b468ae8d6979ba91fe33ecb37b0220c1b747ec62af802d619a4d6b5a64736f6c63430008120033","opcodes":"PUSH1 0xC0 PUSH1 0x40 MSTORE CALLVALUE DUP1 ISZERO PUSH3 0x11 JUMPI PUSH1 0x0 DUP1 REVERT JUMPDEST POP PUSH1 0x40 MLOAD PUSH3 0x1863 CODESIZE SUB DUP1 PUSH3 0x1863 DUP4 CODECOPY DUP2 ADD PUSH1 0x40 DUP2 SWAP1 MSTORE PUSH3 0x34 SWAP2 PUSH3 0x24C JUMP JUMPDEST DUP1 PUSH1 0x1 PUSH1 0x1 PUSH1 0xA0 SHL SUB DUP2 AND PUSH3 0x5D JUMPI PUSH1 0x40 MLOAD PUSH4 0x63716C4D PUSH1 0xE0 SHL DUP2 MSTORE PUSH1 0x4 ADD PUSH1 0x40 MLOAD DUP1 SWAP2 SUB SWAP1 REVERT JUMPDEST PUSH3 0x6A PUSH1 0x0 CALLER PUSH3 0x19C JUMP JUMPDEST POP PUSH1 0x1 DUP1 SLOAD PUSH1 0x1 PUSH1 0x1 PUSH1 0xA0 SHL SUB NOT SWAP1 DUP2 AND PUSH20 0xB4FBF271143F4FBF7B91A5DED31805E42B2208D6 OR DUP3 SSTORE PUSH1 0x2 DUP1 SLOAD DUP3 AND PUSH20 0x178E141A0E3B34152F73FF610437A7BF9B83267A OR SWAP1 SSTORE PUSH1 0x3 DUP1 SLOAD SWAP1 SWAP2 AND PUSH20 0x2CAC916B2A963BF162F076C0A8A4A8200BCFBFB4 OR SWAP1 SSTORE PUSH1 0x1 PUSH1 0x1 PUSH1 0xA0 SHL SUB SWAP2 SWAP1 SWAP2 AND PUSH1 0x80 MSTORE PUSH20 0xE592427A0AECE92DE3EDEE1F18E0157C05861564 PUSH1 0xA0 MSTORE PUSH1 0x5 PUSH1 0x20 MSTORE PUSH32 0xCEFC2199E904350FD546B30571468DE63D921031009F9A7B9AB1205231CE6AD3 DUP1 SLOAD PUSH1 0xFF NOT SWAP1 DUP2 AND DUP4 OR SWAP1 SWAP2 SSTORE PUSH32 0x1D6BC42546486C8F71B9CF7D9956E915D38C748F56C376F0EA2A4A9A81685953 DUP1 SLOAD DUP3 AND DUP4 OR SWAP1 SSTORE PUSH20 0x7865C6E87B9F70255377E024ACE6630C1EAA37F PUSH1 0x0 MSTORE PUSH32 0x4057A4BD44E97A5E91FF5D9F4141740365666FA04241EFA5E57BC68CE007C21A DUP1 SLOAD SWAP1 SWAP2 AND SWAP1 SWAP2 OR SWAP1 SSTORE PUSH3 0x27E JUMP JUMPDEST PUSH3 0x1A8 DUP3 DUP3 PUSH3 0x1AC JUMP JUMPDEST POP POP JUMP JUMPDEST PUSH1 0x0 DUP3 DUP2 MSTORE PUSH1 0x20 DUP2 DUP2 MSTORE PUSH1 0x40 DUP1 DUP4 KECCAK256 PUSH1 0x1 PUSH1 0x1 PUSH1 0xA0 SHL SUB DUP6 AND DUP5 MSTORE SWAP1 SWAP2 MSTORE SWAP1 KECCAK256 SLOAD PUSH1 0xFF AND PUSH3 0x1A8 JUMPI PUSH1 0x0 DUP3 DUP2 MSTORE PUSH1 0x20 DUP2 DUP2 MSTORE PUSH1 0x40 DUP1 DUP4 KECCAK256 PUSH1 0x1 PUSH1 0x1 PUSH1 0xA0 SHL SUB DUP6 AND DUP5 MSTORE SWAP1 SWAP2 MSTORE SWAP1 KECCAK256 DUP1 SLOAD PUSH1 0xFF NOT AND PUSH1 0x1 OR SWAP1 SSTORE PUSH3 0x208 CALLER SWAP1 JUMP JUMPDEST PUSH1 0x1 PUSH1 0x1 PUSH1 0xA0 SHL SUB AND DUP2 PUSH1 0x1 PUSH1 0x1 PUSH1 0xA0 SHL SUB AND DUP4 PUSH32 0x2F8788117E7EFF1D82E926EC794901D17C78024A50270940304540A733656F0D PUSH1 0x40 MLOAD PUSH1 0x40 MLOAD DUP1 SWAP2 SUB SWAP1 LOG4 POP POP JUMP JUMPDEST PUSH1 0x0 PUSH1 0x20 DUP3 DUP5 SUB SLT ISZERO PUSH3 0x25F JUMPI PUSH1 0x0 DUP1 REVERT JUMPDEST DUP2 MLOAD PUSH1 0x1 PUSH1 0x1 PUSH1 0xA0 SHL SUB DUP2 AND DUP2 EQ PUSH3 0x277 JUMPI PUSH1 0x0 DUP1 REVERT JUMPDEST SWAP4 SWAP3 POP POP POP JUMP JUMPDEST PUSH1 0x80 MLOAD PUSH1 0xA0 MLOAD PUSH2 0x15AA PUSH3 0x2B9 PUSH1 0x0 CODECOPY PUSH1 0x0 DUP2 DUP2 PUSH2 0x38E ADD MSTORE DUP2 DUP2 PUSH2 0xD86 ADD MSTORE PUSH2 0xE52 ADD MSTORE PUSH1 0x0 DUP2 DUP2 PUSH2 0x235 ADD MSTORE PUSH2 0x77F ADD MSTORE PUSH2 0x15AA PUSH1 0x0 RETURN INVALID PUSH1 0x80 PUSH1 0x40 MSTORE PUSH1 0x4 CALLDATASIZE LT PUSH2 0x122 JUMPI PUSH1 0x0 CALLDATALOAD PUSH1 0xE0 SHR DUP1 PUSH4 0x7C8B45AE GT PUSH2 0xA5 JUMPI DUP1 PUSH4 0xC31C9C07 GT PUSH2 0x6C JUMPI DUP1 PUSH4 0xC31C9C07 EQ PUSH2 0x37C JUMPI DUP1 PUSH4 0xD547741F EQ PUSH2 0x3B0 JUMPI DUP1 PUSH4 0xDD1B9C4A EQ PUSH2 0x3D0 JUMPI DUP1 PUSH4 0xDF6D9212 EQ PUSH2 0x3FA JUMPI DUP1 PUSH4 0xF5595746 EQ PUSH2 0x41A JUMPI DUP1 PUSH4 0xFA19DC07 EQ PUSH2 0x43A JUMPI STOP JUMPDEST DUP1 PUSH4 0x7C8B45AE EQ PUSH2 0x2D7 JUMPI DUP1 PUSH4 0x86F870A2 EQ PUSH2 0x2F7 JUMPI DUP1 PUSH4 0x87479A9B EQ PUSH2 0x317 JUMPI DUP1 PUSH4 0x91D14854 EQ PUSH2 0x347 JUMPI DUP1 PUSH4 0xA217FDDF EQ PUSH2 0x367 JUMPI STOP JUMPDEST DUP1 PUSH4 0x346519A0 GT PUSH2 0xE9 JUMPI DUP1 PUSH4 0x346519A0 EQ PUSH2 0x223 JUMPI DUP1 PUSH4 0x36568ABE EQ PUSH2 0x257 JUMPI DUP1 PUSH4 0x38E82271 EQ PUSH2 0x277 JUMPI DUP1 PUSH4 0x64B72507 EQ PUSH2 0x297 JUMPI DUP1 PUSH4 0x7B895D38 EQ PUSH2 0x2B7 JUMPI STOP JUMPDEST DUP1 PUSH4 0x1FFC9A7 EQ PUSH2 0x12B JUMPI DUP1 PUSH4 0x16906960 EQ PUSH2 0x160 JUMPI DUP1 PUSH4 0x248A9CA3 EQ PUSH2 0x198 JUMPI DUP1 PUSH4 0x27E235E3 EQ PUSH2 0x1D6 JUMPI DUP1 PUSH4 0x2F2FF15D EQ PUSH2 0x203 JUMPI STOP JUMPDEST CALLDATASIZE PUSH2 0x129 JUMPI STOP JUMPDEST STOP JUMPDEST CALLVALUE DUP1 ISZERO PUSH2 0x137 JUMPI PUSH1 0x0 DUP1 REVERT JUMPDEST POP PUSH2 0x14B PUSH2 0x146 CALLDATASIZE PUSH1 0x4 PUSH2 0x12E2 JUMP JUMPDEST PUSH2 0x45A JUMP JUMPDEST PUSH1 0x40 MLOAD SWAP1 ISZERO ISZERO DUP2 MSTORE PUSH1 0x20 ADD JUMPDEST PUSH1 0x40 MLOAD DUP1 SWAP2 SUB SWAP1 RETURN JUMPDEST CALLVALUE DUP1 ISZERO PUSH2 0x16C JUMPI PUSH1 0x0 DUP1 REVERT JUMPDEST POP PUSH1 0x3 SLOAD PUSH2 0x180 SWAP1 PUSH1 0x1 PUSH1 0x1 PUSH1 0xA0 SHL SUB AND DUP2 JUMP JUMPDEST PUSH1 0x40 MLOAD PUSH1 0x1 PUSH1 0x1 PUSH1 0xA0 SHL SUB SWAP1 SWAP2 AND DUP2 MSTORE PUSH1 0x20 ADD PUSH2 0x157 JUMP JUMPDEST CALLVALUE DUP1 ISZERO PUSH2 0x1A4 JUMPI PUSH1 0x0 DUP1 REVERT JUMPDEST POP PUSH2 0x1C8 PUSH2 0x1B3 CALLDATASIZE PUSH1 0x4 PUSH2 0x130C JUMP JUMPDEST PUSH1 0x0 SWAP1 DUP2 MSTORE PUSH1 0x20 DUP2 SWAP1 MSTORE PUSH1 0x40 SWAP1 KECCAK256 PUSH1 0x1 ADD SLOAD SWAP1 JUMP JUMPDEST PUSH1 0x40 MLOAD SWAP1 DUP2 MSTORE PUSH1 0x20 ADD PUSH2 0x157 JUMP JUMPDEST CALLVALUE DUP1 ISZERO PUSH2 0x1E2 JUMPI PUSH1 0x0 DUP1 REVERT JUMPDEST POP PUSH2 0x1C8 PUSH2 0x1F1 CALLDATASIZE PUSH1 0x4 PUSH2 0x1341 JUMP JUMPDEST PUSH1 0x4 PUSH1 0x20 MSTORE PUSH1 0x0 SWAP1 DUP2 MSTORE PUSH1 0x40 SWAP1 KECCAK256 SLOAD DUP2 JUMP JUMPDEST CALLVALUE DUP1 ISZERO PUSH2 0x20F JUMPI PUSH1 0x0 DUP1 REVERT JUMPDEST POP PUSH2 0x129 PUSH2 0x21E CALLDATASIZE PUSH1 0x4 PUSH2 0x135C JUMP JUMPDEST PUSH2 0x491 JUMP JUMPDEST CALLVALUE DUP1 ISZERO PUSH2 0x22F JUMPI PUSH1 0x0 DUP1 REVERT JUMPDEST POP PUSH2 0x180 PUSH32 0x0 DUP2 JUMP JUMPDEST CALLVALUE DUP1 ISZERO PUSH2 0x263 JUMPI PUSH1 0x0 DUP1 REVERT JUMPDEST POP PUSH2 0x129 PUSH2 0x272 CALLDATASIZE PUSH1 0x4 PUSH2 0x135C JUMP JUMPDEST PUSH2 0x4BB JUMP JUMPDEST CALLVALUE DUP1 ISZERO PUSH2 0x283 JUMPI PUSH1 0x0 DUP1 REVERT JUMPDEST POP PUSH2 0x129 PUSH2 0x292 CALLDATASIZE PUSH1 0x4 PUSH2 0x1341 JUMP JUMPDEST PUSH2 0x53E JUMP JUMPDEST CALLVALUE DUP1 ISZERO PUSH2 0x2A3 JUMPI PUSH1 0x0 DUP1 REVERT JUMPDEST POP PUSH2 0x129 PUSH2 0x2B2 CALLDATASIZE PUSH1 0x4 PUSH2 0x1341 JUMP JUMPDEST PUSH2 0x5F8 JUMP JUMPDEST CALLVALUE DUP1 ISZERO PUSH2 0x2C3 JUMPI PUSH1 0x0 DUP1 REVERT JUMPDEST POP PUSH2 0x1C8 PUSH2 0x2D2 CALLDATASIZE PUSH1 0x4 PUSH2 0x1388 JUMP JUMPDEST PUSH2 0x6E9 JUMP JUMPDEST CALLVALUE DUP1 ISZERO PUSH2 0x2E3 JUMPI PUSH1 0x0 DUP1 REVERT JUMPDEST POP PUSH2 0x129 PUSH2 0x2F2 CALLDATASIZE PUSH1 0x4 PUSH2 0x1341 JUMP JUMPDEST PUSH2 0xA19 JUMP JUMPDEST CALLVALUE DUP1 ISZERO PUSH2 0x303 JUMPI PUSH1 0x0 DUP1 REVERT JUMPDEST POP PUSH2 0x129 PUSH2 0x312 CALLDATASIZE PUSH1 0x4 PUSH2 0x1341 JUMP JUMPDEST PUSH2 0xAD3 JUMP JUMPDEST CALLVALUE DUP1 ISZERO PUSH2 0x323 JUMPI PUSH1 0x0 DUP1 REVERT JUMPDEST POP PUSH2 0x14B PUSH2 0x332 CALLDATASIZE PUSH1 0x4 PUSH2 0x1341 JUMP JUMPDEST PUSH1 0x5 PUSH1 0x20 MSTORE PUSH1 0x0 SWAP1 DUP2 MSTORE PUSH1 0x40 SWAP1 KECCAK256 SLOAD PUSH1 0xFF AND DUP2 JUMP JUMPDEST CALLVALUE DUP1 ISZERO PUSH2 0x353 JUMPI PUSH1 0x0 DUP1 REVERT JUMPDEST POP PUSH2 0x14B PUSH2 0x362 CALLDATASIZE PUSH1 0x4 PUSH2 0x135C JUMP JUMPDEST PUSH2 0xB8D JUMP JUMPDEST CALLVALUE DUP1 ISZERO PUSH2 0x373 JUMPI PUSH1 0x0 DUP1 REVERT JUMPDEST POP PUSH2 0x1C8 PUSH1 0x0 DUP2 JUMP JUMPDEST CALLVALUE DUP1 ISZERO PUSH2 0x388 JUMPI PUSH1 0x0 DUP1 REVERT JUMPDEST POP PUSH2 0x180 PUSH32 0x0 DUP2 JUMP JUMPDEST CALLVALUE DUP1 ISZERO PUSH2 0x3BC JUMPI PUSH1 0x0 DUP1 REVERT JUMPDEST POP PUSH2 0x129 PUSH2 0x3CB CALLDATASIZE PUSH1 0x4 PUSH2 0x135C JUMP JUMPDEST PUSH2 0xBB6 JUMP JUMPDEST CALLVALUE DUP1 ISZERO PUSH2 0x3DC JUMPI PUSH1 0x0 DUP1 REVERT JUMPDEST POP PUSH2 0x3E6 PUSH2 0xBB8 DUP2 JUMP JUMPDEST PUSH1 0x40 MLOAD PUSH3 0xFFFFFF SWAP1 SWAP2 AND DUP2 MSTORE PUSH1 0x20 ADD PUSH2 0x157 JUMP JUMPDEST CALLVALUE DUP1 ISZERO PUSH2 0x406 JUMPI PUSH1 0x0 DUP1 REVERT JUMPDEST POP PUSH1 0x1 SLOAD PUSH2 0x180 SWAP1 PUSH1 0x1 PUSH1 0x1 PUSH1 0xA0 SHL SUB AND DUP2 JUMP JUMPDEST CALLVALUE DUP1 ISZERO PUSH2 0x426 JUMPI PUSH1 0x0 DUP1 REVERT JUMPDEST POP PUSH1 0x2 SLOAD PUSH2 0x180 SWAP1 PUSH1 0x1 PUSH1 0x1 PUSH1 0xA0 SHL SUB AND DUP2 JUMP JUMPDEST CALLVALUE DUP1 ISZERO PUSH2 0x446 JUMPI PUSH1 0x0 DUP1 REVERT JUMPDEST POP PUSH2 0x129 PUSH2 0x455 CALLDATASIZE PUSH1 0x4 PUSH2 0x1341 JUMP JUMPDEST PUSH2 0xBDB JUMP JUMPDEST PUSH1 0x0 PUSH1 0x1 PUSH1 0x1 PUSH1 0xE0 SHL SUB NOT DUP3 AND PUSH4 0x7965DB0B PUSH1 0xE0 SHL EQ DUP1 PUSH2 0x48B JUMPI POP PUSH4 0x1FFC9A7 PUSH1 0xE0 SHL PUSH1 0x1 PUSH1 0x1 PUSH1 0xE0 SHL SUB NOT DUP4 AND EQ JUMPDEST SWAP3 SWAP2 POP POP JUMP JUMPDEST PUSH1 0x0 DUP3 DUP2 MSTORE PUSH1 0x20 DUP2 SWAP1 MSTORE PUSH1 0x40 SWAP1 KECCAK256 PUSH1 0x1 ADD SLOAD PUSH2 0x4AC DUP2 PUSH2 0xC7C JUMP JUMPDEST PUSH2 0x4B6 DUP4 DUP4 PUSH2 0xC89 JUMP JUMPDEST POP POP POP JUMP JUMPDEST PUSH1 0x1 PUSH1 0x1 PUSH1 0xA0 SHL SUB DUP2 AND CALLER EQ PUSH2 0x530 JUMPI PUSH1 0x40 MLOAD PUSH3 0x461BCD PUSH1 0xE5 SHL DUP2 MSTORE PUSH1 0x20 PUSH1 0x4 DUP3 ADD MSTORE PUSH1 0x2F PUSH1 0x24 DUP3 ADD MSTORE PUSH32 0x416363657373436F6E74726F6C3A2063616E206F6E6C792072656E6F756E6365 PUSH1 0x44 DUP3 ADD MSTORE PUSH15 0x103937B632B9903337B91039B2B633 PUSH1 0x89 SHL PUSH1 0x64 DUP3 ADD MSTORE PUSH1 0x84 ADD JUMPDEST PUSH1 0x40 MLOAD DUP1 SWAP2 SUB SWAP1 REVERT JUMPDEST PUSH2 0x53A DUP3 DUP3 PUSH2 0xD0D JUMP JUMPDEST POP POP JUMP JUMPDEST DUP1 PUSH1 0x1 PUSH1 0x1 PUSH1 0xA0 SHL SUB DUP2 AND PUSH2 0x566 JUMPI PUSH1 0x40 MLOAD PUSH4 0x63716C4D PUSH1 0xE0 SHL DUP2 MSTORE PUSH1 0x4 ADD PUSH1 0x40 MLOAD DUP1 SWAP2 SUB SWAP1 REVERT JUMPDEST PUSH2 0x571 PUSH1 0x0 CALLER PUSH2 0xB8D JUMP JUMPDEST PUSH2 0x58E JUMPI PUSH1 0x40 MLOAD PUSH4 0x8F73A153 PUSH1 0xE0 SHL DUP2 MSTORE PUSH1 0x4 ADD PUSH1 0x40 MLOAD DUP1 SWAP2 SUB SWAP1 REVERT JUMPDEST PUSH1 0x3 SLOAD PUSH1 0x40 DUP1 MLOAD PUSH1 0x1 PUSH1 0x1 PUSH1 0xA0 SHL SUB SWAP3 DUP4 AND DUP2 MSTORE SWAP2 DUP5 AND PUSH1 0x20 DUP4 ADD MSTORE PUSH32 0xC4722AEDB7E14C03FE351D925A847F242527A1079C1390E9C8C355BE18493FD8 SWAP2 ADD PUSH1 0x40 MLOAD DUP1 SWAP2 SUB SWAP1 LOG1 POP PUSH1 0x3 DUP1 SLOAD PUSH1 0x1 PUSH1 0x1 PUSH1 0xA0 SHL SUB NOT AND PUSH1 0x1 PUSH1 0x1 PUSH1 0xA0 SHL SUB SWAP3 SWAP1 SWAP3 AND SWAP2 SWAP1 SWAP2 OR SWAP1 SSTORE JUMP JUMPDEST DUP1 PUSH1 0x1 PUSH1 0x1 PUSH1 0xA0 SHL SUB DUP2 AND PUSH2 0x620 JUMPI PUSH1 0x40 MLOAD PUSH4 0x63716C4D PUSH1 0xE0 SHL DUP2 MSTORE PUSH1 0x4 ADD PUSH1 0x40 MLOAD DUP1 SWAP2 SUB SWAP1 REVERT JUMPDEST PUSH2 0x62B PUSH1 0x0 CALLER PUSH2 0xB8D JUMP JUMPDEST PUSH2 0x648 JUMPI PUSH1 0x40 MLOAD PUSH4 0x8F73A153 PUSH1 0xE0 SHL DUP2 MSTORE PUSH1 0x4 ADD PUSH1 0x40 MLOAD DUP1 SWAP2 SUB SWAP1 REVERT JUMPDEST PUSH1 0x1 PUSH1 0x1 PUSH1 0xA0 SHL SUB DUP3 AND PUSH1 0x0 SWAP1 DUP2 MSTORE PUSH1 0x5 PUSH1 0x20 MSTORE PUSH1 0x40 SWAP1 KECCAK256 SLOAD PUSH1 0xFF AND ISZERO PUSH2 0x68D JUMPI PUSH1 0x40 MLOAD PUSH4 0xEBB84F69 PUSH1 0xE0 SHL DUP2 MSTORE PUSH1 0x1 PUSH1 0x1 PUSH1 0xA0 SHL SUB DUP4 AND PUSH1 0x4 DUP3 ADD MSTORE PUSH1 0x24 ADD PUSH2 0x527 JUMP JUMPDEST PUSH1 0x1 PUSH1 0x1 PUSH1 0xA0 SHL SUB DUP3 AND PUSH1 0x0 DUP2 DUP2 MSTORE PUSH1 0x5 PUSH1 0x20 SWAP1 DUP2 MSTORE PUSH1 0x40 SWAP2 DUP3 SWAP1 KECCAK256 DUP1 SLOAD PUSH1 0xFF NOT AND PUSH1 0x1 OR SWAP1 SSTORE SWAP1 MLOAD SWAP2 DUP3 MSTORE PUSH32 0xD3FD5514D8D38737937E026D07C3E8FD002F28A6DF2F95C0DC46A71C1D69F290 SWAP2 ADD JUMPDEST PUSH1 0x40 MLOAD DUP1 SWAP2 SUB SWAP1 LOG1 POP POP JUMP JUMPDEST PUSH1 0x0 DUP1 DUP4 GT PUSH2 0x70B JUMPI PUSH1 0x40 MLOAD PUSH4 0x5C90049D PUSH1 0xE0 SHL DUP2 MSTORE PUSH1 0x4 ADD PUSH1 0x40 MLOAD DUP1 SWAP2 SUB SWAP1 REVERT JUMPDEST PUSH1 0x1 PUSH1 0x1 PUSH1 0xA0 SHL SUB DUP5 AND PUSH1 0x0 SWAP1 DUP2 MSTORE PUSH1 0x5 PUSH1 0x20 MSTORE PUSH1 0x40 SWAP1 KECCAK256 SLOAD PUSH1 0xFF AND PUSH2 0x74F JUMPI PUSH1 0x40 MLOAD PUSH4 0x2EF2023 PUSH1 0xE6 SHL DUP2 MSTORE PUSH1 0x1 PUSH1 0x1 PUSH1 0xA0 SHL SUB DUP6 AND PUSH1 0x4 DUP3 ADD MSTORE PUSH1 0x24 ADD PUSH2 0x527 JUMP JUMPDEST PUSH2 0x759 DUP4 DUP6 PUSH2 0xD72 JUMP JUMPDEST PUSH1 0x40 MLOAD PUSH4 0xAB714FB PUSH1 0xE1 SHL DUP2 MSTORE CALLER PUSH1 0x4 DUP3 ADD MSTORE PUSH1 0x24 DUP2 ADD DUP6 SWAP1 MSTORE PUSH1 0x44 DUP2 ADD DUP5 SWAP1 MSTORE SWAP1 SWAP2 POP PUSH32 0x0 PUSH1 0x1 PUSH1 0x1 PUSH1 0xA0 SHL SUB AND SWAP1 PUSH4 0x156E29F6 SWAP1 PUSH1 0x64 ADD PUSH1 0x0 PUSH1 0x40 MLOAD DUP1 DUP4 SUB DUP2 PUSH1 0x0 DUP8 DUP1 EXTCODESIZE ISZERO DUP1 ISZERO PUSH2 0x7CB JUMPI PUSH1 0x0 DUP1 REVERT JUMPDEST POP GAS CALL ISZERO DUP1 ISZERO PUSH2 0x7DF JUMPI RETURNDATASIZE PUSH1 0x0 DUP1 RETURNDATACOPY RETURNDATASIZE PUSH1 0x0 REVERT JUMPDEST POP POP PUSH1 0x1 SLOAD PUSH1 0x40 MLOAD PUSH4 0x2E1A7D4D PUSH1 0xE0 SHL DUP2 MSTORE PUSH1 0x4 DUP2 ADD DUP6 SWAP1 MSTORE PUSH1 0x1 PUSH1 0x1 PUSH1 0xA0 SHL SUB SWAP1 SWAP2 AND SWAP3 POP PUSH4 0x2E1A7D4D SWAP2 POP PUSH1 0x24 ADD PUSH1 0x0 PUSH1 0x40 MLOAD DUP1 DUP4 SUB DUP2 PUSH1 0x0 DUP8 DUP1 EXTCODESIZE ISZERO DUP1 ISZERO PUSH2 0x829 JUMPI PUSH1 0x0 DUP1 REVERT JUMPDEST POP GAS CALL ISZERO DUP1 ISZERO PUSH2 0x83D JUMPI RETURNDATASIZE PUSH1 0x0 DUP1 RETURNDATACOPY RETURNDATASIZE PUSH1 0x0 REVERT JUMPDEST POP POP PUSH1 0x2 SLOAD PUSH1 0x40 MLOAD PUSH4 0x70A08231 PUSH1 0xE0 SHL DUP2 MSTORE ADDRESS PUSH1 0x4 DUP3 ADD MSTORE PUSH1 0x0 SWAP4 POP PUSH1 0x1 PUSH1 0x1 PUSH1 0xA0 SHL SUB SWAP1 SWAP2 AND SWAP2 POP PUSH4 0x70A08231 SWAP1 PUSH1 0x24 ADD PUSH1 0x20 PUSH1 0x40 MLOAD DUP1 DUP4 SUB DUP2 DUP7 GAS STATICCALL ISZERO DUP1 ISZERO PUSH2 0x88C JUMPI RETURNDATASIZE PUSH1 0x0 DUP1 RETURNDATACOPY RETURNDATASIZE PUSH1 0x0 REVERT JUMPDEST POP POP POP POP PUSH1 0x40 MLOAD RETURNDATASIZE PUSH1 0x1F NOT PUSH1 0x1F DUP3 ADD AND DUP3 ADD DUP1 PUSH1 0x40 MSTORE POP DUP2 ADD SWAP1 PUSH2 0x8B0 SWAP2 SWAP1 PUSH2 0x13BB JUMP JUMPDEST SWAP1 POP PUSH1 0x3 PUSH1 0x0 SWAP1 SLOAD SWAP1 PUSH2 0x100 EXP SWAP1 DIV PUSH1 0x1 PUSH1 0x1 PUSH1 0xA0 SHL SUB AND PUSH1 0x1 PUSH1 0x1 PUSH1 0xA0 SHL SUB AND PUSH4 0xD0E30DB0 DUP4 PUSH1 0x40 MLOAD DUP3 PUSH4 0xFFFFFFFF AND PUSH1 0xE0 SHL DUP2 MSTORE PUSH1 0x4 ADD PUSH1 0x0 PUSH1 0x40 MLOAD DUP1 DUP4 SUB DUP2 DUP6 DUP9 DUP1 EXTCODESIZE ISZERO DUP1 ISZERO PUSH2 0x902 JUMPI PUSH1 0x0 DUP1 REVERT JUMPDEST POP GAS CALL ISZERO DUP1 ISZERO PUSH2 0x916 JUMPI RETURNDATASIZE PUSH1 0x0 DUP1 RETURNDATACOPY RETURNDATASIZE PUSH1 0x0 REVERT JUMPDEST POP POP PUSH1 0x2 SLOAD PUSH1 0x40 MLOAD PUSH4 0x70A08231 PUSH1 0xE0 SHL DUP2 MSTORE ADDRESS PUSH1 0x4 DUP3 ADD MSTORE PUSH1 0x0 SWAP5 POP PUSH1 0x1 PUSH1 0x1 PUSH1 0xA0 SHL SUB SWAP1 SWAP2 AND SWAP3 POP PUSH4 0x70A08231 SWAP2 POP PUSH1 0x24 ADD PUSH1 0x20 PUSH1 0x40 MLOAD DUP1 DUP4 SUB DUP2 DUP7 GAS STATICCALL ISZERO DUP1 ISZERO PUSH2 0x966 JUMPI RETURNDATASIZE PUSH1 0x0 DUP1 RETURNDATACOPY RETURNDATASIZE PUSH1 0x0 REVERT JUMPDEST POP POP POP POP PUSH1 0x40 MLOAD RETURNDATASIZE PUSH1 0x1F NOT PUSH1 0x1F DUP3 ADD AND DUP3 ADD DUP1 PUSH1 0x40 MSTORE POP DUP2 ADD SWAP1 PUSH2 0x98A SWAP2 SWAP1 PUSH2 0x13BB JUMP JUMPDEST SWAP1 POP DUP2 DUP2 LT ISZERO PUSH2 0x9AD JUMPI PUSH1 0x40 MLOAD PUSH4 0x1452EBB7 PUSH1 0xE1 SHL DUP2 MSTORE PUSH1 0x4 ADD PUSH1 0x40 MLOAD DUP1 SWAP2 SUB SWAP1 REVERT JUMPDEST PUSH1 0x0 PUSH2 0x9B9 DUP4 DUP4 PUSH2 0x13EA JUMP JUMPDEST CALLER PUSH1 0x0 SWAP1 DUP2 MSTORE PUSH1 0x4 PUSH1 0x20 MSTORE PUSH1 0x40 DUP2 KECCAK256 DUP1 SLOAD SWAP3 SWAP4 POP DUP4 SWAP3 SWAP1 SWAP2 SWAP1 PUSH2 0x9DD SWAP1 DUP5 SWAP1 PUSH2 0x13FD JUMP JUMPDEST SWAP1 SWAP2 SSTORE POP POP PUSH1 0x40 MLOAD DUP5 SWAP1 CALLER SWAP1 PUSH32 0xD90F1FCA51E813C7F414A95C5F61DEDBC802D6F960B16E20362862DEAA502E24 SWAP1 PUSH1 0x0 SWAP1 LOG3 POP POP POP SWAP4 SWAP3 POP POP POP JUMP JUMPDEST DUP1 PUSH1 0x1 PUSH1 0x1 PUSH1 0xA0 SHL SUB DUP2 AND PUSH2 0xA41 JUMPI PUSH1 0x40 MLOAD PUSH4 0x63716C4D PUSH1 0xE0 SHL DUP2 MSTORE PUSH1 0x4 ADD PUSH1 0x40 MLOAD DUP1 SWAP2 SUB SWAP1 REVERT JUMPDEST PUSH2 0xA4C PUSH1 0x0 CALLER PUSH2 0xB8D JUMP JUMPDEST PUSH2 0xA69 JUMPI PUSH1 0x40 MLOAD PUSH4 0x8F73A153 PUSH1 0xE0 SHL DUP2 MSTORE PUSH1 0x4 ADD PUSH1 0x40 MLOAD DUP1 SWAP2 SUB SWAP1 REVERT JUMPDEST PUSH1 0x2 SLOAD PUSH1 0x40 DUP1 MLOAD PUSH1 0x1 PUSH1 0x1 PUSH1 0xA0 SHL SUB SWAP3 DUP4 AND DUP2 MSTORE SWAP2 DUP5 AND PUSH1 0x20 DUP4 ADD MSTORE PUSH32 0xC9F31771C671187E4AB48197590B7D13F81A8519B35C03FCED410C7B504435DA SWAP2 ADD PUSH1 0x40 MLOAD DUP1 SWAP2 SUB SWAP1 LOG1 POP PUSH1 0x2 DUP1 SLOAD PUSH1 0x1 PUSH1 0x1 PUSH1 0xA0 SHL SUB NOT AND PUSH1 0x1 PUSH1 0x1 PUSH1 0xA0 SHL SUB SWAP3 SWAP1 SWAP3 AND SWAP2 SWAP1 SWAP2 OR SWAP1 SSTORE JUMP JUMPDEST DUP1 PUSH1 0x1 PUSH1 0x1 PUSH1 0xA0 SHL SUB DUP2 AND PUSH2 0xAFB JUMPI PUSH1 0x40 MLOAD PUSH4 0x63716C4D PUSH1 0xE0 SHL DUP2 MSTORE PUSH1 0x4 ADD PUSH1 0x40 MLOAD DUP1 SWAP2 SUB SWAP1 REVERT JUMPDEST PUSH2 0xB06 PUSH1 0x0 CALLER PUSH2 0xB8D JUMP JUMPDEST PUSH2 0xB23 JUMPI PUSH1 0x40 MLOAD PUSH4 0x8F73A153 PUSH1 0xE0 SHL DUP2 MSTORE PUSH1 0x4 ADD PUSH1 0x40 MLOAD DUP1 SWAP2 SUB SWAP1 REVERT JUMPDEST PUSH1 0x1 SLOAD PUSH1 0x40 DUP1 MLOAD PUSH1 0x1 PUSH1 0x1 PUSH1 0xA0 SHL SUB SWAP3 DUP4 AND DUP2 MSTORE SWAP2 DUP5 AND PUSH1 0x20 DUP4 ADD MSTORE PUSH32 0x1EEC9A3A647ADC7A929DB43A3A812F44DFDC1AC62E59441FCAFFCEB5B8A36743 SWAP2 ADD PUSH1 0x40 MLOAD DUP1 SWAP2 SUB SWAP1 LOG1 POP PUSH1 0x1 DUP1 SLOAD PUSH1 0x1 PUSH1 0x1 PUSH1 0xA0 SHL SUB NOT AND PUSH1 0x1 PUSH1 0x1 PUSH1 0xA0 SHL SUB SWAP3 SWAP1 SWAP3 AND SWAP2 SWAP1 SWAP2 OR SWAP1 SSTORE JUMP JUMPDEST PUSH1 0x0 SWAP2 DUP3 MSTORE PUSH1 0x20 DUP3 DUP2 MSTORE PUSH1 0x40 DUP1 DUP5 KECCAK256 PUSH1 0x1 PUSH1 0x1 PUSH1 0xA0 SHL SUB SWAP4 SWAP1 SWAP4 AND DUP5 MSTORE SWAP2 SWAP1 MSTORE SWAP1 KECCAK256 SLOAD PUSH1 0xFF AND SWAP1 JUMP JUMPDEST PUSH1 0x0 DUP3 DUP2 MSTORE PUSH1 0x20 DUP2 SWAP1 MSTORE PUSH1 0x40 SWAP1 KECCAK256 PUSH1 0x1 ADD SLOAD PUSH2 0xBD1 DUP2 PUSH2 0xC7C JUMP JUMPDEST PUSH2 0x4B6 DUP4 DUP4 PUSH2 0xD0D JUMP JUMPDEST DUP1 PUSH1 0x1 PUSH1 0x1 PUSH1 0xA0 SHL SUB DUP2 AND PUSH2 0xC03 JUMPI PUSH1 0x40 MLOAD PUSH4 0x63716C4D PUSH1 0xE0 SHL DUP2 MSTORE PUSH1 0x4 ADD PUSH1 0x40 MLOAD DUP1 SWAP2 SUB SWAP1 REVERT JUMPDEST PUSH2 0xC0E PUSH1 0x0 CALLER PUSH2 0xB8D JUMP JUMPDEST PUSH2 0xC2B JUMPI PUSH1 0x40 MLOAD PUSH4 0x8F73A153 PUSH1 0xE0 SHL DUP2 MSTORE PUSH1 0x4 ADD PUSH1 0x40 MLOAD DUP1 SWAP2 SUB SWAP1 REVERT JUMPDEST PUSH1 0x1 PUSH1 0x1 PUSH1 0xA0 SHL SUB DUP3 AND PUSH1 0x0 DUP2 DUP2 MSTORE PUSH1 0x5 PUSH1 0x20 SWAP1 DUP2 MSTORE PUSH1 0x40 SWAP2 DUP3 SWAP1 KECCAK256 DUP1 SLOAD PUSH1 0xFF NOT AND SWAP1 SSTORE SWAP1 MLOAD SWAP2 DUP3 MSTORE PUSH32 0x88E26BC6BEF7637BFD9B65BE229BFDEC9813454AD0BEE72203006A540DADFD54 SWAP2 ADD PUSH2 0x6DD JUMP JUMPDEST PUSH2 0xC86 DUP2 CALLER PUSH2 0xECA JUMP JUMPDEST POP JUMP JUMPDEST PUSH2 0xC93 DUP3 DUP3 PUSH2 0xB8D JUMP JUMPDEST PUSH2 0x53A JUMPI PUSH1 0x0 DUP3 DUP2 MSTORE PUSH1 0x20 DUP2 DUP2 MSTORE PUSH1 0x40 DUP1 DUP4 KECCAK256 PUSH1 0x1 PUSH1 0x1 PUSH1 0xA0 SHL SUB DUP6 AND DUP5 MSTORE SWAP1 SWAP2 MSTORE SWAP1 KECCAK256 DUP1 SLOAD PUSH1 0xFF NOT AND PUSH1 0x1 OR SWAP1 SSTORE PUSH2 0xCC9 CALLER SWAP1 JUMP JUMPDEST PUSH1 0x1 PUSH1 0x1 PUSH1 0xA0 SHL SUB AND DUP2 PUSH1 0x1 PUSH1 0x1 PUSH1 0xA0 SHL SUB AND DUP4 PUSH32 0x2F8788117E7EFF1D82E926EC794901D17C78024A50270940304540A733656F0D PUSH1 0x40 MLOAD PUSH1 0x40 MLOAD DUP1 SWAP2 SUB SWAP1 LOG4 POP POP JUMP JUMPDEST PUSH2 0xD17 DUP3 DUP3 PUSH2 0xB8D JUMP JUMPDEST ISZERO PUSH2 0x53A JUMPI PUSH1 0x0 DUP3 DUP2 MSTORE PUSH1 0x20 DUP2 DUP2 MSTORE PUSH1 0x40 DUP1 DUP4 KECCAK256 PUSH1 0x1 PUSH1 0x1 PUSH1 0xA0 SHL SUB DUP6 AND DUP1 DUP6 MSTORE SWAP3 MSTORE DUP1 DUP4 KECCAK256 DUP1 SLOAD PUSH1 0xFF NOT AND SWAP1 SSTORE MLOAD CALLER SWAP3 DUP6 SWAP2 PUSH32 0xF6391F5C32D9C69D2A47EA670B442974B53935D1EDC7FD64EB21E047A839171B SWAP2 SWAP1 LOG4 POP POP JUMP JUMPDEST PUSH1 0x0 PUSH2 0xD80 DUP3 CALLER ADDRESS DUP7 PUSH2 0xF23 JUMP JUMPDEST PUSH2 0xDAB DUP3 PUSH32 0x0 DUP6 PUSH2 0x102D JUMP JUMPDEST PUSH1 0x40 DUP1 MLOAD PUSH2 0x100 DUP2 ADD DUP3 MSTORE PUSH1 0x1 PUSH1 0x1 PUSH1 0xA0 SHL SUB DUP5 DUP2 AND DUP3 MSTORE PUSH1 0x1 SLOAD DUP2 AND PUSH1 0x20 DUP4 ADD SWAP1 DUP2 MSTORE PUSH2 0xBB8 DUP4 DUP6 ADD SWAP1 DUP2 MSTORE ADDRESS PUSH1 0x60 DUP6 ADD SWAP1 DUP2 MSTORE TIMESTAMP PUSH1 0x80 DUP7 ADD SWAP1 DUP2 MSTORE PUSH1 0xA0 DUP7 ADD DUP11 DUP2 MSTORE PUSH1 0x0 PUSH1 0xC0 DUP9 ADD DUP2 DUP2 MSTORE PUSH1 0xE0 DUP10 ADD SWAP2 DUP3 MSTORE SWAP9 MLOAD PUSH4 0x414BF389 PUSH1 0xE0 SHL DUP2 MSTORE DUP9 MLOAD DUP9 AND PUSH1 0x4 DUP3 ADD MSTORE SWAP6 MLOAD DUP8 AND PUSH1 0x24 DUP8 ADD MSTORE SWAP4 MLOAD PUSH3 0xFFFFFF AND PUSH1 0x44 DUP7 ADD MSTORE SWAP2 MLOAD DUP6 AND PUSH1 0x64 DUP6 ADD MSTORE MLOAD PUSH1 0x84 DUP5 ADD MSTORE MLOAD PUSH1 0xA4 DUP4 ADD MSTORE SWAP4 MLOAD PUSH1 0xC4 DUP3 ADD MSTORE SWAP3 MLOAD DUP2 AND PUSH1 0xE4 DUP5 ADD MSTORE SWAP1 SWAP2 PUSH32 0x0 SWAP1 SWAP2 AND SWAP1 PUSH4 0x414BF389 SWAP1 PUSH2 0x104 ADD PUSH1 0x20 PUSH1 0x40 MLOAD DUP1 DUP4 SUB DUP2 PUSH1 0x0 DUP8 GAS CALL ISZERO DUP1 ISZERO PUSH2 0xE9E JUMPI RETURNDATASIZE PUSH1 0x0 DUP1 RETURNDATACOPY RETURNDATASIZE PUSH1 0x0 REVERT JUMPDEST POP POP POP POP PUSH1 0x40 MLOAD RETURNDATASIZE PUSH1 0x1F NOT PUSH1 0x1F DUP3 ADD AND DUP3 ADD DUP1 PUSH1 0x40 MSTORE POP DUP2 ADD SWAP1 PUSH2 0xEC2 SWAP2 SWAP1 PUSH2 0x13BB JUMP JUMPDEST SWAP5 SWAP4 POP POP POP POP JUMP JUMPDEST PUSH2 0xED4 DUP3 DUP3 PUSH2 0xB8D JUMP JUMPDEST PUSH2 0x53A JUMPI PUSH2 0xEE1 DUP2 PUSH2 0x112D JUMP JUMPDEST PUSH2 0xEEC DUP4 PUSH1 0x20 PUSH2 0x113F JUMP JUMPDEST PUSH1 0x40 MLOAD PUSH1 0x20 ADD PUSH2 0xEFD SWAP3 SWAP2 SWAP1 PUSH2 0x1434 JUMP JUMPDEST PUSH1 0x40 DUP1 MLOAD PUSH1 0x1F NOT DUP2 DUP5 SUB ADD DUP2 MSTORE SWAP1 DUP3 SWAP1 MSTORE PUSH3 0x461BCD PUSH1 0xE5 SHL DUP3 MSTORE PUSH2 0x527 SWAP2 PUSH1 0x4 ADD PUSH2 0x14A9 JUMP JUMPDEST PUSH1 0x40 DUP1 MLOAD PUSH1 0x1 PUSH1 0x1 PUSH1 0xA0 SHL SUB DUP6 DUP2 AND PUSH1 0x24 DUP4 ADD MSTORE DUP5 DUP2 AND PUSH1 0x44 DUP4 ADD MSTORE PUSH1 0x64 DUP1 DUP4 ADD DUP6 SWAP1 MSTORE DUP4 MLOAD DUP1 DUP5 SUB SWAP1 SWAP2 ADD DUP2 MSTORE PUSH1 0x84 SWAP1 SWAP3 ADD DUP4 MSTORE PUSH1 0x20 DUP3 ADD DUP1 MLOAD PUSH1 0x1 PUSH1 0x1 PUSH1 0xE0 SHL SUB AND PUSH4 0x23B872DD PUSH1 0xE0 SHL OR SWAP1 MSTORE SWAP2 MLOAD PUSH1 0x0 SWAP3 DUP4 SWAP3 SWAP1 DUP9 AND SWAP2 PUSH2 0xF87 SWAP2 SWAP1 PUSH2 0x14DC JUMP JUMPDEST PUSH1 0x0 PUSH1 0x40 MLOAD DUP1 DUP4 SUB DUP2 PUSH1 0x0 DUP7 GAS CALL SWAP2 POP POP RETURNDATASIZE DUP1 PUSH1 0x0 DUP2 EQ PUSH2 0xFC4 JUMPI PUSH1 0x40 MLOAD SWAP2 POP PUSH1 0x1F NOT PUSH1 0x3F RETURNDATASIZE ADD AND DUP3 ADD PUSH1 0x40 MSTORE RETURNDATASIZE DUP3 MSTORE RETURNDATASIZE PUSH1 0x0 PUSH1 0x20 DUP5 ADD RETURNDATACOPY PUSH2 0xFC9 JUMP JUMPDEST PUSH1 0x60 SWAP2 POP JUMPDEST POP SWAP2 POP SWAP2 POP DUP2 DUP1 ISZERO PUSH2 0xFF3 JUMPI POP DUP1 MLOAD ISZERO DUP1 PUSH2 0xFF3 JUMPI POP DUP1 DUP1 PUSH1 0x20 ADD SWAP1 MLOAD DUP2 ADD SWAP1 PUSH2 0xFF3 SWAP2 SWAP1 PUSH2 0x14F8 JUMP JUMPDEST PUSH2 0x1025 JUMPI PUSH1 0x40 MLOAD PUSH3 0x461BCD PUSH1 0xE5 SHL DUP2 MSTORE PUSH1 0x20 PUSH1 0x4 DUP3 ADD MSTORE PUSH1 0x3 PUSH1 0x24 DUP3 ADD MSTORE PUSH3 0x29AA23 PUSH1 0xE9 SHL PUSH1 0x44 DUP3 ADD MSTORE PUSH1 0x64 ADD PUSH2 0x527 JUMP JUMPDEST POP POP POP POP POP POP JUMP JUMPDEST PUSH1 0x40 DUP1 MLOAD PUSH1 0x1 PUSH1 0x1 PUSH1 0xA0 SHL SUB DUP5 DUP2 AND PUSH1 0x24 DUP4 ADD MSTORE PUSH1 0x44 DUP1 DUP4 ADD DUP6 SWAP1 MSTORE DUP4 MLOAD DUP1 DUP5 SUB SWAP1 SWAP2 ADD DUP2 MSTORE PUSH1 0x64 SWAP1 SWAP3 ADD DUP4 MSTORE PUSH1 0x20 DUP3 ADD DUP1 MLOAD PUSH1 0x1 PUSH1 0x1 PUSH1 0xE0 SHL SUB AND PUSH4 0x95EA7B3 PUSH1 0xE0 SHL OR SWAP1 MSTORE SWAP2 MLOAD PUSH1 0x0 SWAP3 DUP4 SWAP3 SWAP1 DUP8 AND SWAP2 PUSH2 0x1089 SWAP2 SWAP1 PUSH2 0x14DC JUMP JUMPDEST PUSH1 0x0 PUSH1 0x40 MLOAD DUP1 DUP4 SUB DUP2 PUSH1 0x0 DUP7 GAS CALL SWAP2 POP POP RETURNDATASIZE DUP1 PUSH1 0x0 DUP2 EQ PUSH2 0x10C6 JUMPI PUSH1 0x40 MLOAD SWAP2 POP PUSH1 0x1F NOT PUSH1 0x3F RETURNDATASIZE ADD AND DUP3 ADD PUSH1 0x40 MSTORE RETURNDATASIZE DUP3 MSTORE RETURNDATASIZE PUSH1 0x0 PUSH1 0x20 DUP5 ADD RETURNDATACOPY PUSH2 0x10CB JUMP JUMPDEST PUSH1 0x60 SWAP2 POP JUMPDEST POP SWAP2 POP SWAP2 POP DUP2 DUP1 ISZERO PUSH2 0x10F5 JUMPI POP DUP1 MLOAD ISZERO DUP1 PUSH2 0x10F5 JUMPI POP DUP1 DUP1 PUSH1 0x20 ADD SWAP1 MLOAD DUP2 ADD SWAP1 PUSH2 0x10F5 SWAP2 SWAP1 PUSH2 0x14F8 JUMP JUMPDEST PUSH2 0x1126 JUMPI PUSH1 0x40 MLOAD PUSH3 0x461BCD PUSH1 0xE5 SHL DUP2 MSTORE PUSH1 0x20 PUSH1 0x4 DUP3 ADD MSTORE PUSH1 0x2 PUSH1 0x24 DUP3 ADD MSTORE PUSH2 0x5341 PUSH1 0xF0 SHL PUSH1 0x44 DUP3 ADD MSTORE PUSH1 0x64 ADD PUSH2 0x527 JUMP JUMPDEST POP POP POP POP POP JUMP JUMPDEST PUSH1 0x60 PUSH2 0x48B PUSH1 0x1 PUSH1 0x1 PUSH1 0xA0 SHL SUB DUP4 AND PUSH1 0x14 JUMPDEST PUSH1 0x60 PUSH1 0x0 PUSH2 0x114E DUP4 PUSH1 0x2 PUSH2 0x151A JUMP JUMPDEST PUSH2 0x1159 SWAP1 PUSH1 0x2 PUSH2 0x13FD JUMP JUMPDEST PUSH8 0xFFFFFFFFFFFFFFFF DUP2 GT ISZERO PUSH2 0x1171 JUMPI PUSH2 0x1171 PUSH2 0x1531 JUMP JUMPDEST PUSH1 0x40 MLOAD SWAP1 DUP1 DUP3 MSTORE DUP1 PUSH1 0x1F ADD PUSH1 0x1F NOT AND PUSH1 0x20 ADD DUP3 ADD PUSH1 0x40 MSTORE DUP1 ISZERO PUSH2 0x119B JUMPI PUSH1 0x20 DUP3 ADD DUP2 DUP1 CALLDATASIZE DUP4 CALLDATACOPY ADD SWAP1 POP JUMPDEST POP SWAP1 POP PUSH1 0x3 PUSH1 0xFC SHL DUP2 PUSH1 0x0 DUP2 MLOAD DUP2 LT PUSH2 0x11B6 JUMPI PUSH2 0x11B6 PUSH2 0x1547 JUMP JUMPDEST PUSH1 0x20 ADD ADD SWAP1 PUSH1 0x1 PUSH1 0x1 PUSH1 0xF8 SHL SUB NOT AND SWAP1 DUP2 PUSH1 0x0 BYTE SWAP1 MSTORE8 POP PUSH1 0xF PUSH1 0xFB SHL DUP2 PUSH1 0x1 DUP2 MLOAD DUP2 LT PUSH2 0x11E5 JUMPI PUSH2 0x11E5 PUSH2 0x1547 JUMP JUMPDEST PUSH1 0x20 ADD ADD SWAP1 PUSH1 0x1 PUSH1 0x1 PUSH1 0xF8 SHL SUB NOT AND SWAP1 DUP2 PUSH1 0x0 BYTE SWAP1 MSTORE8 POP PUSH1 0x0 PUSH2 0x1209 DUP5 PUSH1 0x2 PUSH2 0x151A JUMP JUMPDEST PUSH2 0x1214 SWAP1 PUSH1 0x1 PUSH2 0x13FD JUMP JUMPDEST SWAP1 POP JUMPDEST PUSH1 0x1 DUP2 GT ISZERO PUSH2 0x128C JUMPI PUSH16 0x181899199A1A9B1B9C1CB0B131B232B3 PUSH1 0x81 SHL DUP6 PUSH1 0xF AND PUSH1 0x10 DUP2 LT PUSH2 0x1248 JUMPI PUSH2 0x1248 PUSH2 0x1547 JUMP JUMPDEST BYTE PUSH1 0xF8 SHL DUP3 DUP3 DUP2 MLOAD DUP2 LT PUSH2 0x125E JUMPI PUSH2 0x125E PUSH2 0x1547 JUMP JUMPDEST PUSH1 0x20 ADD ADD SWAP1 PUSH1 0x1 PUSH1 0x1 PUSH1 0xF8 SHL SUB NOT AND SWAP1 DUP2 PUSH1 0x0 BYTE SWAP1 MSTORE8 POP PUSH1 0x4 SWAP5 SWAP1 SWAP5 SHR SWAP4 PUSH2 0x1285 DUP2 PUSH2 0x155D JUMP JUMPDEST SWAP1 POP PUSH2 0x1217 JUMP JUMPDEST POP DUP4 ISZERO PUSH2 0x12DB JUMPI PUSH1 0x40 MLOAD PUSH3 0x461BCD PUSH1 0xE5 SHL DUP2 MSTORE PUSH1 0x20 PUSH1 0x4 DUP3 ADD DUP2 SWAP1 MSTORE PUSH1 0x24 DUP3 ADD MSTORE PUSH32 0x537472696E67733A20686578206C656E67746820696E73756666696369656E74 PUSH1 0x44 DUP3 ADD MSTORE PUSH1 0x64 ADD PUSH2 0x527 JUMP JUMPDEST SWAP4 SWAP3 POP POP POP JUMP JUMPDEST PUSH1 0x0 PUSH1 0x20 DUP3 DUP5 SUB SLT ISZERO PUSH2 0x12F4 JUMPI PUSH1 0x0 DUP1 REVERT JUMPDEST DUP2 CALLDATALOAD PUSH1 0x1 PUSH1 0x1 PUSH1 0xE0 SHL SUB NOT DUP2 AND DUP2 EQ PUSH2 0x12DB JUMPI PUSH1 0x0 DUP1 REVERT JUMPDEST PUSH1 0x0 PUSH1 0x20 DUP3 DUP5 SUB SLT ISZERO PUSH2 0x131E JUMPI PUSH1 0x0 DUP1 REVERT JUMPDEST POP CALLDATALOAD SWAP2 SWAP1 POP JUMP JUMPDEST DUP1 CALLDATALOAD PUSH1 0x1 PUSH1 0x1 PUSH1 0xA0 SHL SUB DUP2 AND DUP2 EQ PUSH2 0x133C JUMPI PUSH1 0x0 DUP1 REVERT JUMPDEST SWAP2 SWAP1 POP JUMP JUMPDEST PUSH1 0x0 PUSH1 0x20 DUP3 DUP5 SUB SLT ISZERO PUSH2 0x1353 JUMPI PUSH1 0x0 DUP1 REVERT JUMPDEST PUSH2 0x12DB DUP3 PUSH2 0x1325 JUMP JUMPDEST PUSH1 0x0 DUP1 PUSH1 0x40 DUP4 DUP6 SUB SLT ISZERO PUSH2 0x136F JUMPI PUSH1 0x0 DUP1 REVERT JUMPDEST DUP3 CALLDATALOAD SWAP2 POP PUSH2 0x137F PUSH1 0x20 DUP5 ADD PUSH2 0x1325 JUMP JUMPDEST SWAP1 POP SWAP3 POP SWAP3 SWAP1 POP JUMP JUMPDEST PUSH1 0x0 DUP1 PUSH1 0x0 PUSH1 0x60 DUP5 DUP7 SUB SLT ISZERO PUSH2 0x139D JUMPI PUSH1 0x0 DUP1 REVERT JUMPDEST PUSH2 0x13A6 DUP5 PUSH2 0x1325 JUMP JUMPDEST SWAP6 PUSH1 0x20 DUP6 ADD CALLDATALOAD SWAP6 POP PUSH1 0x40 SWAP1 SWAP5 ADD CALLDATALOAD SWAP4 SWAP3 POP POP POP JUMP JUMPDEST PUSH1 0x0 PUSH1 0x20 DUP3 DUP5 SUB SLT ISZERO PUSH2 0x13CD JUMPI PUSH1 0x0 DUP1 REVERT JUMPDEST POP MLOAD SWAP2 SWAP1 POP JUMP JUMPDEST PUSH4 0x4E487B71 PUSH1 0xE0 SHL PUSH1 0x0 MSTORE PUSH1 0x11 PUSH1 0x4 MSTORE PUSH1 0x24 PUSH1 0x0 REVERT JUMPDEST DUP2 DUP2 SUB DUP2 DUP2 GT ISZERO PUSH2 0x48B JUMPI PUSH2 0x48B PUSH2 0x13D4 JUMP JUMPDEST DUP1 DUP3 ADD DUP1 DUP3 GT ISZERO PUSH2 0x48B JUMPI PUSH2 0x48B PUSH2 0x13D4 JUMP JUMPDEST PUSH1 0x0 JUMPDEST DUP4 DUP2 LT ISZERO PUSH2 0x142B JUMPI DUP2 DUP2 ADD MLOAD DUP4 DUP3 ADD MSTORE PUSH1 0x20 ADD PUSH2 0x1413 JUMP JUMPDEST POP POP PUSH1 0x0 SWAP2 ADD MSTORE JUMP JUMPDEST PUSH32 0x416363657373436F6E74726F6C3A206163636F756E7420000000000000000000 DUP2 MSTORE PUSH1 0x0 DUP4 MLOAD PUSH2 0x146C DUP2 PUSH1 0x17 DUP6 ADD PUSH1 0x20 DUP9 ADD PUSH2 0x1410 JUMP JUMPDEST PUSH17 0x1034B99036B4B9B9B4B733903937B6329 PUSH1 0x7D SHL PUSH1 0x17 SWAP2 DUP5 ADD SWAP2 DUP3 ADD MSTORE DUP4 MLOAD PUSH2 0x149D DUP2 PUSH1 0x28 DUP5 ADD PUSH1 0x20 DUP9 ADD PUSH2 0x1410 JUMP JUMPDEST ADD PUSH1 0x28 ADD SWAP5 SWAP4 POP POP POP POP JUMP JUMPDEST PUSH1 0x20 DUP2 MSTORE PUSH1 0x0 DUP3 MLOAD DUP1 PUSH1 0x20 DUP5 ADD MSTORE PUSH2 0x14C8 DUP2 PUSH1 0x40 DUP6 ADD PUSH1 0x20 DUP8 ADD PUSH2 0x1410 JUMP JUMPDEST PUSH1 0x1F ADD PUSH1 0x1F NOT AND SWAP2 SWAP1 SWAP2 ADD PUSH1 0x40 ADD SWAP3 SWAP2 POP POP JUMP JUMPDEST PUSH1 0x0 DUP3 MLOAD PUSH2 0x14EE DUP2 DUP5 PUSH1 0x20 DUP8 ADD PUSH2 0x1410 JUMP JUMPDEST SWAP2 SWAP1 SWAP2 ADD SWAP3 SWAP2 POP POP JUMP JUMPDEST PUSH1 0x0 PUSH1 0x20 DUP3 DUP5 SUB SLT ISZERO PUSH2 0x150A JUMPI PUSH1 0x0 DUP1 REVERT JUMPDEST DUP2 MLOAD DUP1 ISZERO ISZERO DUP2 EQ PUSH2 0x12DB JUMPI PUSH1 0x0 DUP1 REVERT JUMPDEST DUP1 DUP3 MUL DUP2 ISZERO DUP3 DUP3 DIV DUP5 EQ OR PUSH2 0x48B JUMPI PUSH2 0x48B PUSH2 0x13D4 JUMP JUMPDEST PUSH4 0x4E487B71 PUSH1 0xE0 SHL PUSH1 0x0 MSTORE PUSH1 0x41 PUSH1 0x4 MSTORE PUSH1 0x24 PUSH1 0x0 REVERT JUMPDEST PUSH4 0x4E487B71 PUSH1 0xE0 SHL PUSH1 0x0 MSTORE PUSH1 0x32 PUSH1 0x4 MSTORE PUSH1 0x24 PUSH1 0x0 REVERT JUMPDEST PUSH1 0x0 DUP2 PUSH2 0x156C JUMPI PUSH2 0x156C PUSH2 0x13D4 JUMP JUMPDEST POP PUSH1 0x0 NOT ADD SWAP1 JUMP INVALID LOG2 PUSH5 0x6970667358 0x22 SLT KECCAK256 0x4E JUMPI SWAP11 SLT 0xB4 PUSH9 0xAE8D6979BA91FE33EC 0xB3 PUSH28 0x220C1B747EC62AF802D619A4D6B5A64736F6C634300081200330000 "},"methodIdentifiers":{"DEFAULT_ADMIN_ROLE()":"a217fddf","POOL_FEE()":"dd1b9c4a","addNewStablecoinAddress(address)":"64b72507","availableStablecoins(address)":"87479a9b","balances(address)":"27e235e3","depositRPAndMintRNFTD(address,uint256,uint256)":"7b895d38","getRoleAdmin(bytes32)":"248a9ca3","grantRole(bytes32,address)":"2f2ff15d","hasRole(bytes32,address)":"91d14854","rEth()":"f5595746","removeStablecoinAddress(address)":"fa19dc07","renounceRole(bytes32,address)":"36568abe","revokeRole(bytes32,address)":"d547741f","rnftd()":"346519a0","rocketPoolDeposit()":"16906960","setNewREthAddress(address)":"7c8b45ae","setNewRocketPoolDepositAddress(address)":"38e82271","setNewWEthAddress(address)":"86f870a2","supportsInterface(bytes4)":"01ffc9a7","swapRouter()":"c31c9c07","wEth()":"df6d9212"}}}}}