{
  "_format": "hh-sol-artifact-1",
  "contractName": "RNFTDollarDeposit",
  "sourceName": "contracts/RNFTDollarDeposit.sol",
  "abi": [
    {
      "inputs": [
        {
          "internalType": "address",
          "name": "_rnftd",
          "type": "address"
        }
      ],
      "stateMutability": "nonpayable",
      "type": "constructor"
    },
    {
      "inputs": [
        {
          "internalType": "address",
          "name": "stablecoin",
          "type": "address"
        }
      ],
      "name": "RNFTDollarDeposit_AlreadyStablecoinAdded",
      "type": "error"
    },
    {
      "inputs": [],
      "name": "RNFTDollarDeposit_InvalidDepositAmount",
      "type": "error"
    },
    {
      "inputs": [],
      "name": "RNFTDollarDeposit_NoRETHWasMinted",
      "type": "error"
    },
    {
      "inputs": [],
      "name": "RNFTDollarDeposit_NotAdminRole",
      "type": "error"
    },
    {
      "inputs": [
        {
          "internalType": "address",
          "name": "stablecoin",
          "type": "address"
        }
      ],
      "name": "RNFTDollarDeposit_NotAvailableStablecoin",
      "type": "error"
    },
    {
      "inputs": [],
      "name": "RNFTDollarDeposit_ZeroAddress",
      "type": "error"
    },
    {
      "anonymous": false,
      "inputs": [
        {
          "indexed": false,
          "internalType": "address",
          "name": "stablecoinAddress",
          "type": "address"
        }
      ],
      "name": "NewStablecoinAddressAdded",
      "type": "event"
    },
    {
      "anonymous": false,
      "inputs": [
        {
          "indexed": false,
          "internalType": "address",
          "name": "oldREthAddress",
          "type": "address"
        },
        {
          "indexed": false,
          "internalType": "address",
          "name": "newREthAddress",
          "type": "address"
        }
      ],
      "name": "REthAddressChanged",
      "type": "event"
    },
    {
      "anonymous": false,
      "inputs": [
        {
          "indexed": false,
          "internalType": "address",
          "name": "oldRocketPoolDepositAddress",
          "type": "address"
        },
        {
          "indexed": false,
          "internalType": "address",
          "name": "newRocketPoolDepositAddress",
          "type": "address"
        }
      ],
      "name": "RocketPoolDepositAddressChanged",
      "type": "event"
    },
    {
      "anonymous": false,
      "inputs": [
        {
          "indexed": true,
          "internalType": "bytes32",
          "name": "role",
          "type": "bytes32"
        },
        {
          "indexed": true,
          "internalType": "bytes32",
          "name": "previousAdminRole",
          "type": "bytes32"
        },
        {
          "indexed": true,
          "internalType": "bytes32",
          "name": "newAdminRole",
          "type": "bytes32"
        }
      ],
      "name": "RoleAdminChanged",
      "type": "event"
    },
    {
      "anonymous": false,
      "inputs": [
        {
          "indexed": true,
          "internalType": "bytes32",
          "name": "role",
          "type": "bytes32"
        },
        {
          "indexed": true,
          "internalType": "address",
          "name": "account",
          "type": "address"
        },
        {
          "indexed": true,
          "internalType": "address",
          "name": "sender",
          "type": "address"
        }
      ],
      "name": "RoleGranted",
      "type": "event"
    },
    {
      "anonymous": false,
      "inputs": [
        {
          "indexed": true,
          "internalType": "bytes32",
          "name": "role",
          "type": "bytes32"
        },
        {
          "indexed": true,
          "internalType": "address",
          "name": "account",
          "type": "address"
        },
        {
          "indexed": true,
          "internalType": "address",
          "name": "sender",
          "type": "address"
        }
      ],
      "name": "RoleRevoked",
      "type": "event"
    },
    {
      "anonymous": false,
      "inputs": [
        {
          "indexed": false,
          "internalType": "address",
          "name": "stablecoinAddress",
          "type": "address"
        }
      ],
      "name": "StablecoinAddressRemoved",
      "type": "event"
    },
    {
      "anonymous": false,
      "inputs": [
        {
          "indexed": true,
          "internalType": "address",
          "name": "sender",
          "type": "address"
        },
        {
          "indexed": true,
          "internalType": "uint256",
          "name": "amountOut",
          "type": "uint256"
        }
      ],
      "name": "StakedWEthAndReceivedRNFDollar",
      "type": "event"
    },
    {
      "anonymous": false,
      "inputs": [
        {
          "indexed": false,
          "internalType": "address",
          "name": "oldWEthAddress",
          "type": "address"
        },
        {
          "indexed": false,
          "internalType": "address",
          "name": "newWEthAddress",
          "type": "address"
        }
      ],
      "name": "WEthAddressChanged",
      "type": "event"
    },
    {
      "stateMutability": "payable",
      "type": "fallback"
    },
    {
      "inputs": [],
      "name": "DEFAULT_ADMIN_ROLE",
      "outputs": [
        {
          "internalType": "bytes32",
          "name": "",
          "type": "bytes32"
        }
      ],
      "stateMutability": "view",
      "type": "function"
    },
    {
      "inputs": [],
      "name": "POOL_FEE",
      "outputs": [
        {
          "internalType": "uint24",
          "name": "",
          "type": "uint24"
        }
      ],
      "stateMutability": "view",
      "type": "function"
    },
    {
      "inputs": [
        {
          "internalType": "address",
          "name": "stablecoinAddress",
          "type": "address"
        }
      ],
      "name": "addNewStablecoinAddress",
      "outputs": [],
      "stateMutability": "nonpayable",
      "type": "function"
    },
    {
      "inputs": [
        {
          "internalType": "address",
          "name": "",
          "type": "address"
        }
      ],
      "name": "availableStablecoins",
      "outputs": [
        {
          "internalType": "bool",
          "name": "",
          "type": "bool"
        }
      ],
      "stateMutability": "view",
      "type": "function"
    },
    {
      "inputs": [
        {
          "internalType": "address",
          "name": "",
          "type": "address"
        }
      ],
      "name": "balances",
      "outputs": [
        {
          "internalType": "uint256",
          "name": "",
          "type": "uint256"
        }
      ],
      "stateMutability": "view",
      "type": "function"
    },
    {
      "inputs": [
        {
          "internalType": "address",
          "name": "tokenIn",
          "type": "address"
        },
        {
          "internalType": "uint256",
          "name": "amountIn",
          "type": "uint256"
        },
        {
          "internalType": "uint256",
          "name": "decimalsOfInput",
          "type": "uint256"
        }
      ],
      "name": "depositRPAndMintRNFTD",
      "outputs": [
        {
          "internalType": "uint256",
          "name": "amountOut",
          "type": "uint256"
        }
      ],
      "stateMutability": "nonpayable",
      "type": "function"
    },
    {
      "inputs": [
        {
          "internalType": "bytes32",
          "name": "role",
          "type": "bytes32"
        }
      ],
      "name": "getRoleAdmin",
      "outputs": [
        {
          "internalType": "bytes32",
          "name": "",
          "type": "bytes32"
        }
      ],
      "stateMutability": "view",
      "type": "function"
    },
    {
      "inputs": [
        {
          "internalType": "bytes32",
          "name": "role",
          "type": "bytes32"
        },
        {
          "internalType": "address",
          "name": "account",
          "type": "address"
        }
      ],
      "name": "grantRole",
      "outputs": [],
      "stateMutability": "nonpayable",
      "type": "function"
    },
    {
      "inputs": [
        {
          "internalType": "bytes32",
          "name": "role",
          "type": "bytes32"
        },
        {
          "internalType": "address",
          "name": "account",
          "type": "address"
        }
      ],
      "name": "hasRole",
      "outputs": [
        {
          "internalType": "bool",
          "name": "",
          "type": "bool"
        }
      ],
      "stateMutability": "view",
      "type": "function"
    },
    {
      "inputs": [],
      "name": "rEth",
      "outputs": [
        {
          "internalType": "address",
          "name": "",
          "type": "address"
        }
      ],
      "stateMutability": "view",
      "type": "function"
    },
    {
      "inputs": [
        {
          "internalType": "address",
          "name": "stablecoinAddress",
          "type": "address"
        }
      ],
      "name": "removeStablecoinAddress",
      "outputs": [],
      "stateMutability": "nonpayable",
      "type": "function"
    },
    {
      "inputs": [
        {
          "internalType": "bytes32",
          "name": "role",
          "type": "bytes32"
        },
        {
          "internalType": "address",
          "name": "account",
          "type": "address"
        }
      ],
      "name": "renounceRole",
      "outputs": [],
      "stateMutability": "nonpayable",
      "type": "function"
    },
    {
      "inputs": [
        {
          "internalType": "bytes32",
          "name": "role",
          "type": "bytes32"
        },
        {
          "internalType": "address",
          "name": "account",
          "type": "address"
        }
      ],
      "name": "revokeRole",
      "outputs": [],
      "stateMutability": "nonpayable",
      "type": "function"
    },
    {
      "inputs": [],
      "name": "rnftd",
      "outputs": [
        {
          "internalType": "address",
          "name": "",
          "type": "address"
        }
      ],
      "stateMutability": "view",
      "type": "function"
    },
    {
      "inputs": [],
      "name": "rocketPoolDeposit",
      "outputs": [
        {
          "internalType": "address",
          "name": "",
          "type": "address"
        }
      ],
      "stateMutability": "view",
      "type": "function"
    },
    {
      "inputs": [
        {
          "internalType": "address",
          "name": "newREthAddress",
          "type": "address"
        }
      ],
      "name": "setNewREthAddress",
      "outputs": [],
      "stateMutability": "nonpayable",
      "type": "function"
    },
    {
      "inputs": [
        {
          "internalType": "address",
          "name": "newRocketPoolDepositAddress",
          "type": "address"
        }
      ],
      "name": "setNewRocketPoolDepositAddress",
      "outputs": [],
      "stateMutability": "nonpayable",
      "type": "function"
    },
    {
      "inputs": [
        {
          "internalType": "address",
          "name": "newWEthAddress",
          "type": "address"
        }
      ],
      "name": "setNewWEthAddress",
      "outputs": [],
      "stateMutability": "nonpayable",
      "type": "function"
    },
    {
      "inputs": [
        {
          "internalType": "bytes4",
          "name": "interfaceId",
          "type": "bytes4"
        }
      ],
      "name": "supportsInterface",
      "outputs": [
        {
          "internalType": "bool",
          "name": "",
          "type": "bool"
        }
      ],
      "stateMutability": "view",
      "type": "function"
    },
    {
      "inputs": [],
      "name": "swapRouter",
      "outputs": [
        {
          "internalType": "contract ISwapRouter",
          "name": "",
          "type": "address"
        }
      ],
      "stateMutability": "view",
      "type": "function"
    },
    {
      "inputs": [],
      "name": "wEth",
      "outputs": [
        {
          "internalType": "address",
          "name": "",
          "type": "address"
        }
      ],
      "stateMutability": "view",
      "type": "function"
    },
    {
      "stateMutability": "payable",
      "type": "receive"
    }
  ],
  "bytecode": "0x60c06040523480156200001157600080fd5b50604051620018633803806200186383398101604081905262000034916200024c565b806001600160a01b0381166200005d576040516363716c4d60e01b815260040160405180910390fd5b6200006a6000336200019c565b50600180546001600160a01b031990811673b4fbf271143f4fbf7b91a5ded31805e42b2208d617825560028054821673178e141a0e3b34152f73ff610437a7bf9b83267a17905560038054909116732cac916b2a963bf162f076c0a8a4a8200bcfbfb41790556001600160a01b039190911660805273e592427a0aece92de3edee1f18e0157c0586156460a05260056020527fcefc2199e904350fd546b30571468de63d921031009f9a7b9ab1205231ce6ad3805460ff1990811683179091557f1d6bc42546486c8f71b9cf7d9956e915d38c748f56c376f0ea2a4a9a8168595380548216831790557307865c6e87b9f70255377e024ace6630c1eaa37f6000527f4057a4bd44e97a5e91ff5d9f4141740365666fa04241efa5e57bc68ce007c21a805490911690911790556200027e565b620001a88282620001ac565b5050565b6000828152602081815260408083206001600160a01b038516845290915290205460ff16620001a8576000828152602081815260408083206001600160a01b03851684529091529020805460ff19166001179055620002083390565b6001600160a01b0316816001600160a01b0316837f2f8788117e7eff1d82e926ec794901d17c78024a50270940304540a733656f0d60405160405180910390a45050565b6000602082840312156200025f57600080fd5b81516001600160a01b03811681146200027757600080fd5b9392505050565b60805160a0516115aa620002b96000396000818161038e01528181610d860152610e52015260008181610235015261077f01526115aa6000f3fe6080604052600436106101225760003560e01c80637c8b45ae116100a5578063c31c9c071161006c578063c31c9c071461037c578063d547741f146103b0578063dd1b9c4a146103d0578063df6d9212146103fa578063f55957461461041a578063fa19dc071461043a57005b80637c8b45ae146102d757806386f870a2146102f757806387479a9b1461031757806391d1485414610347578063a217fddf1461036757005b8063346519a0116100e9578063346519a01461022357806336568abe1461025757806338e822711461027757806364b72507146102975780637b895d38146102b757005b806301ffc9a71461012b5780631690696014610160578063248a9ca31461019857806327e235e3146101d65780632f2ff15d1461020357005b3661012957005b005b34801561013757600080fd5b5061014b6101463660046112e2565b61045a565b60405190151581526020015b60405180910390f35b34801561016c57600080fd5b50600354610180906001600160a01b031681565b6040516001600160a01b039091168152602001610157565b3480156101a457600080fd5b506101c86101b336600461130c565b60009081526020819052604090206001015490565b604051908152602001610157565b3480156101e257600080fd5b506101c86101f1366004611341565b60046020526000908152604090205481565b34801561020f57600080fd5b5061012961021e36600461135c565b610491565b34801561022f57600080fd5b506101807f000000000000000000000000000000000000000000000000000000000000000081565b34801561026357600080fd5b5061012961027236600461135c565b6104bb565b34801561028357600080fd5b50610129610292366004611341565b61053e565b3480156102a357600080fd5b506101296102b2366004611341565b6105f8565b3480156102c357600080fd5b506101c86102d2366004611388565b6106e9565b3480156102e357600080fd5b506101296102f2366004611341565b610a19565b34801561030357600080fd5b50610129610312366004611341565b610ad3565b34801561032357600080fd5b5061014b610332366004611341565b60056020526000908152604090205460ff1681565b34801561035357600080fd5b5061014b61036236600461135c565b610b8d565b34801561037357600080fd5b506101c8600081565b34801561038857600080fd5b506101807f000000000000000000000000000000000000000000000000000000000000000081565b3480156103bc57600080fd5b506101296103cb36600461135c565b610bb6565b3480156103dc57600080fd5b506103e6610bb881565b60405162ffffff9091168152602001610157565b34801561040657600080fd5b50600154610180906001600160a01b031681565b34801561042657600080fd5b50600254610180906001600160a01b031681565b34801561044657600080fd5b50610129610455366004611341565b610bdb565b60006001600160e01b03198216637965db0b60e01b148061048b57506301ffc9a760e01b6001600160e01b03198316145b92915050565b6000828152602081905260409020600101546104ac81610c7c565b6104b68383610c89565b505050565b6001600160a01b03811633146105305760405162461bcd60e51b815260206004820152602f60248201527f416363657373436f6e74726f6c3a2063616e206f6e6c792072656e6f756e636560448201526e103937b632b9903337b91039b2b63360891b60648201526084015b60405180910390fd5b61053a8282610d0d565b5050565b806001600160a01b038116610566576040516363716c4d60e01b815260040160405180910390fd5b610571600033610b8d565b61058e57604051638f73a15360e01b815260040160405180910390fd5b600354604080516001600160a01b03928316815291841660208301527fc4722aedb7e14c03fe351d925a847f242527a1079c1390e9c8c355be18493fd8910160405180910390a150600380546001600160a01b0319166001600160a01b0392909216919091179055565b806001600160a01b038116610620576040516363716c4d60e01b815260040160405180910390fd5b61062b600033610b8d565b61064857604051638f73a15360e01b815260040160405180910390fd5b6001600160a01b03821660009081526005602052604090205460ff161561068d5760405163ebb84f6960e01b81526001600160a01b0383166004820152602401610527565b6001600160a01b038216600081815260056020908152604091829020805460ff1916600117905590519182527fd3fd5514d8d38737937e026d07c3e8fd002f28a6df2f95c0dc46a71c1d69f29091015b60405180910390a15050565b600080831161070b57604051635c90049d60e01b815260040160405180910390fd5b6001600160a01b03841660009081526005602052604090205460ff1661074f576040516302ef202360e61b81526001600160a01b0385166004820152602401610527565b6107598385610d72565b604051630ab714fb60e11b815233600482015260248101859052604481018490529091507f00000000000000000000000000000000000000000000000000000000000000006001600160a01b03169063156e29f690606401600060405180830381600087803b1580156107cb57600080fd5b505af11580156107df573d6000803e3d6000fd5b5050600154604051632e1a7d4d60e01b8152600481018590526001600160a01b039091169250632e1a7d4d9150602401600060405180830381600087803b15801561082957600080fd5b505af115801561083d573d6000803e3d6000fd5b50506002546040516370a0823160e01b8152306004820152600093506001600160a01b0390911691506370a0823190602401602060405180830381865afa15801561088c573d6000803e3d6000fd5b505050506040513d601f19601f820116820180604052508101906108b091906113bb565b9050600360009054906101000a90046001600160a01b03166001600160a01b031663d0e30db0836040518263ffffffff1660e01b81526004016000604051808303818588803b15801561090257600080fd5b505af1158015610916573d6000803e3d6000fd5b50506002546040516370a0823160e01b8152306004820152600094506001600160a01b0390911692506370a082319150602401602060405180830381865afa158015610966573d6000803e3d6000fd5b505050506040513d601f19601f8201168201806040525081019061098a91906113bb565b9050818110156109ad57604051631452ebb760e11b815260040160405180910390fd5b60006109b983836113ea565b336000908152600460205260408120805492935083929091906109dd9084906113fd565b9091555050604051849033907fd90f1fca51e813c7f414a95c5f61dedbc802d6f960b16e20362862deaa502e2490600090a35050509392505050565b806001600160a01b038116610a41576040516363716c4d60e01b815260040160405180910390fd5b610a4c600033610b8d565b610a6957604051638f73a15360e01b815260040160405180910390fd5b600254604080516001600160a01b03928316815291841660208301527fc9f31771c671187e4ab48197590b7d13f81a8519b35c03fced410c7b504435da910160405180910390a150600280546001600160a01b0319166001600160a01b0392909216919091179055565b806001600160a01b038116610afb576040516363716c4d60e01b815260040160405180910390fd5b610b06600033610b8d565b610b2357604051638f73a15360e01b815260040160405180910390fd5b600154604080516001600160a01b03928316815291841660208301527f1eec9a3a647adc7a929db43a3a812f44dfdc1ac62e59441fcaffceb5b8a36743910160405180910390a150600180546001600160a01b0319166001600160a01b0392909216919091179055565b6000918252602082815260408084206001600160a01b0393909316845291905290205460ff1690565b600082815260208190526040902060010154610bd181610c7c565b6104b68383610d0d565b806001600160a01b038116610c03576040516363716c4d60e01b815260040160405180910390fd5b610c0e600033610b8d565b610c2b57604051638f73a15360e01b815260040160405180910390fd5b6001600160a01b038216600081815260056020908152604091829020805460ff1916905590519182527f88e26bc6bef7637bfd9b65be229bfdec9813454ad0bee72203006a540dadfd5491016106dd565b610c868133610eca565b50565b610c938282610b8d565b61053a576000828152602081815260408083206001600160a01b03851684529091529020805460ff19166001179055610cc93390565b6001600160a01b0316816001600160a01b0316837f2f8788117e7eff1d82e926ec794901d17c78024a50270940304540a733656f0d60405160405180910390a45050565b610d178282610b8d565b1561053a576000828152602081815260408083206001600160a01b0385168085529252808320805460ff1916905551339285917ff6391f5c32d9c69d2a47ea670b442974b53935d1edc7fd64eb21e047a839171b9190a45050565b6000610d8082333086610f23565b610dab827f00000000000000000000000000000000000000000000000000000000000000008561102d565b60408051610100810182526001600160a01b038481168252600154811660208301908152610bb88385019081523060608501908152426080860190815260a086018a8152600060c0880181815260e08901918252985163414bf38960e01b8152885188166004820152955187166024870152935162ffffff1660448601529151851660648501525160848401525160a4830152935160c48201529251811660e484015290917f00000000000000000000000000000000000000000000000000000000000000009091169063414bf38990610104016020604051808303816000875af1158015610e9e573d6000803e3d6000fd5b505050506040513d601f19601f82011682018060405250810190610ec291906113bb565b949350505050565b610ed48282610b8d565b61053a57610ee18161112d565b610eec83602061113f565b604051602001610efd929190611434565b60408051601f198184030181529082905262461bcd60e51b8252610527916004016114a9565b604080516001600160a01b0385811660248301528481166044830152606480830185905283518084039091018152608490920183526020820180516001600160e01b03166323b872dd60e01b1790529151600092839290881691610f8791906114dc565b6000604051808303816000865af19150503d8060008114610fc4576040519150601f19603f3d011682016040523d82523d6000602084013e610fc9565b606091505b5091509150818015610ff3575080511580610ff3575080806020019051810190610ff391906114f8565b6110255760405162461bcd60e51b815260206004820152600360248201526229aa2360e91b6044820152606401610527565b505050505050565b604080516001600160a01b038481166024830152604480830185905283518084039091018152606490920183526020820180516001600160e01b031663095ea7b360e01b179052915160009283929087169161108991906114dc565b6000604051808303816000865af19150503d80600081146110c6576040519150601f19603f3d011682016040523d82523d6000602084013e6110cb565b606091505b50915091508180156110f55750805115806110f55750808060200190518101906110f591906114f8565b6111265760405162461bcd60e51b8152602060048201526002602482015261534160f01b6044820152606401610527565b5050505050565b606061048b6001600160a01b03831660145b6060600061114e83600261151a565b6111599060026113fd565b67ffffffffffffffff81111561117157611171611531565b6040519080825280601f01601f19166020018201604052801561119b576020820181803683370190505b509050600360fc1b816000815181106111b6576111b6611547565b60200101906001600160f81b031916908160001a905350600f60fb1b816001815181106111e5576111e5611547565b60200101906001600160f81b031916908160001a905350600061120984600261151a565b6112149060016113fd565b90505b600181111561128c576f181899199a1a9b1b9c1cb0b131b232b360811b85600f166010811061124857611248611547565b1a60f81b82828151811061125e5761125e611547565b60200101906001600160f81b031916908160001a90535060049490941c936112858161155d565b9050611217565b5083156112db5760405162461bcd60e51b815260206004820181905260248201527f537472696e67733a20686578206c656e67746820696e73756666696369656e746044820152606401610527565b9392505050565b6000602082840312156112f457600080fd5b81356001600160e01b0319811681146112db57600080fd5b60006020828403121561131e57600080fd5b5035919050565b80356001600160a01b038116811461133c57600080fd5b919050565b60006020828403121561135357600080fd5b6112db82611325565b6000806040838503121561136f57600080fd5b8235915061137f60208401611325565b90509250929050565b60008060006060848603121561139d57600080fd5b6113a684611325565b95602085013595506040909401359392505050565b6000602082840312156113cd57600080fd5b5051919050565b634e487b7160e01b600052601160045260246000fd5b8181038181111561048b5761048b6113d4565b8082018082111561048b5761048b6113d4565b60005b8381101561142b578181015183820152602001611413565b50506000910152565b7f416363657373436f6e74726f6c3a206163636f756e742000000000000000000081526000835161146c816017850160208801611410565b7001034b99036b4b9b9b4b733903937b6329607d1b601791840191820152835161149d816028840160208801611410565b01602801949350505050565b60208152600082518060208401526114c8816040850160208701611410565b601f01601f19169190910160400192915050565b600082516114ee818460208701611410565b9190910192915050565b60006020828403121561150a57600080fd5b815180151581146112db57600080fd5b808202811582820484141761048b5761048b6113d4565b634e487b7160e01b600052604160045260246000fd5b634e487b7160e01b600052603260045260246000fd5b60008161156c5761156c6113d4565b50600019019056fea26469706673582212204e579a12b468ae8d6979ba91fe33ecb37b0220c1b747ec62af802d619a4d6b5a64736f6c63430008120033",
  "linkReferences": {},
  "deployedLinkReferences": {}
}