{
  "_format": "hh-sol-artifact-1",
  "contractName": "AccessContract",
  "sourceName": "contracts/AccessContract.sol",
  "abi": [
    {
      "inputs": [
        {
          "internalType": "address",
          "name": "availableContract",
          "type": "address"
        }
      ],
      "name": "AccessContract_AlreadyAvailableContractAdded",
      "type": "error"
    },
    {
      "inputs": [],
      "name": "AccessContract_ZeroAddress",
      "type": "error"
    },
    {
      "anonymous": false,
      "inputs": [
        {
          "indexed": false,
          "internalType": "address",
          "name": "removedContractAddress",
          "type": "address"
        }
      ],
      "name": "AvailableContractAddressRemoved",
      "type": "event"
    },
    {
      "anonymous": false,
      "inputs": [
        {
          "indexed": false,
          "internalType": "address",
          "name": "newContractAddress",
          "type": "address"
        }
      ],
      "name": "NewAvailableContractAddressAdded",
      "type": "event"
    },
    {
      "anonymous": false,
      "inputs": [
        {
          "indexed": true,
          "internalType": "address",
          "name": "previousOwner",
          "type": "address"
        },
        {
          "indexed": true,
          "internalType": "address",
          "name": "newOwner",
          "type": "address"
        }
      ],
      "name": "OwnershipTransferStarted",
      "type": "event"
    },
    {
      "anonymous": false,
      "inputs": [
        {
          "indexed": true,
          "internalType": "address",
          "name": "previousOwner",
          "type": "address"
        },
        {
          "indexed": true,
          "internalType": "address",
          "name": "newOwner",
          "type": "address"
        }
      ],
      "name": "OwnershipTransferred",
      "type": "event"
    },
    {
      "inputs": [],
      "name": "acceptOwnership",
      "outputs": [],
      "stateMutability": "nonpayable",
      "type": "function"
    },
    {
      "inputs": [
        {
          "internalType": "address",
          "name": "newContractAddress",
          "type": "address"
        }
      ],
      "name": "addNewAvailableContractAddress",
      "outputs": [],
      "stateMutability": "nonpayable",
      "type": "function"
    },
    {
      "inputs": [
        {
          "internalType": "address",
          "name": "",
          "type": "address"
        }
      ],
      "name": "availableContracts",
      "outputs": [
        {
          "internalType": "bool",
          "name": "",
          "type": "bool"
        }
      ],
      "stateMutability": "view",
      "type": "function"
    },
    {
      "inputs": [],
      "name": "owner",
      "outputs": [
        {
          "internalType": "address",
          "name": "",
          "type": "address"
        }
      ],
      "stateMutability": "view",
      "type": "function"
    },
    {
      "inputs": [],
      "name": "pendingOwner",
      "outputs": [
        {
          "internalType": "address",
          "name": "",
          "type": "address"
        }
      ],
      "stateMutability": "view",
      "type": "function"
    },
    {
      "inputs": [
        {
          "internalType": "address",
          "name": "removeContractAddress",
          "type": "address"
        }
      ],
      "name": "removeAvailableContractAddress",
      "outputs": [],
      "stateMutability": "nonpayable",
      "type": "function"
    },
    {
      "inputs": [],
      "name": "renounceOwnership",
      "outputs": [],
      "stateMutability": "nonpayable",
      "type": "function"
    },
    {
      "inputs": [
        {
          "internalType": "address",
          "name": "newOwner",
          "type": "address"
        }
      ],
      "name": "transferOwnership",
      "outputs": [],
      "stateMutability": "nonpayable",
      "type": "function"
    }
  ],
  "bytecode": "0x608060405234801561001057600080fd5b5061001a3361001f565b610096565b600180546001600160a01b031916905561004381610046602090811b61039c17901c565b50565b600080546001600160a01b038381166001600160a01b0319831681178455604051919092169283917f8be0079c531659141344cd1fd0a4f28419497f9722a3daafe3b4186f6b6457e09190a35050565b6104c5806100a56000396000f3fe608060405234801561001057600080fd5b50600436106100885760003560e01c8063c210b8651161005b578063c210b865146100fc578063e30c39781461010f578063e7c64f4e14610120578063f2fde38b1461013357600080fd5b806316f4412a1461008d578063715018a6146100c557806379ba5097146100cf5780638da5cb5b146100d7575b600080fd5b6100b061009b36600461045f565b60026020526000908152604090205460ff1681565b60405190151581526020015b60405180910390f35b6100cd610146565b005b6100cd61015a565b6000546001600160a01b03165b6040516001600160a01b0390911681526020016100bc565b6100cd61010a36600461045f565b6101d9565b6001546001600160a01b03166100e4565b6100cd61012e36600461045f565b6102aa565b6100cd61014136600461045f565b61032b565b61014e6103ec565b6101586000610446565b565b60015433906001600160a01b031681146101cd5760405162461bcd60e51b815260206004820152602960248201527f4f776e61626c6532537465703a2063616c6c6572206973206e6f7420746865206044820152683732bb9037bbb732b960b91b60648201526084015b60405180910390fd5b6101d681610446565b50565b806001600160a01b038116610201576040516393a6823560e01b815260040160405180910390fd5b6102096103ec565b6001600160a01b03821660009081526002602052604090205460ff161561024e57604051635bb7312160e11b81526001600160a01b03831660048201526024016101c4565b6001600160a01b038216600081815260026020908152604091829020805460ff1916600117905590519182527f3aa524755829016034f2823014bac43ff6eef092909806f57e4630a3d218bfdc91015b60405180910390a15050565b806001600160a01b0381166102d2576040516393a6823560e01b815260040160405180910390fd5b6102da6103ec565b6001600160a01b038216600081815260026020908152604091829020805460ff1916905590519182527fdb0953c6768f90a1ee20f851e0ac3aaebf04082e849a3059bc696df2b9483a0b910161029e565b6103336103ec565b600180546001600160a01b0383166001600160a01b031990911681179091556103646000546001600160a01b031690565b6001600160a01b03167f38d16b8cac22d99fc7c124b9cd0de2d3fa1faef420bfe791d8c362d765e2270060405160405180910390a350565b600080546001600160a01b038381166001600160a01b0319831681178455604051919092169283917f8be0079c531659141344cd1fd0a4f28419497f9722a3daafe3b4186f6b6457e09190a35050565b6000546001600160a01b031633146101585760405162461bcd60e51b815260206004820181905260248201527f4f776e61626c653a2063616c6c6572206973206e6f7420746865206f776e657260448201526064016101c4565b600180546001600160a01b03191690556101d68161039c565b60006020828403121561047157600080fd5b81356001600160a01b038116811461048857600080fd5b939250505056fea26469706673582212208c38182783b5a94881391578a790de326e5e94c4ec88f8aea88ba7a448594c1b64736f6c63430008120033",
  "linkReferences": {},
  "deployedLinkReferences": {}
}